H MC20150417*I  ADSM   IND   000005048580000000000000000000000000000000AED   0250091000000000000000           0        0      0         
H MC20150417*I  AEX    IND   000000495030000000000000000000000000000000EUR   0250091000000000000000           0        0      0         
H MC20150417*I  AIJPMTUIND   000000099050000000000000000000000000000000USD   0250091000000000000000           0        0      0         
H MC20150417*I  AORDA  IND   000050670173000000000000000000000000000000AUD   0250091000000000000000           0        0      0         
H MC20150417*I  ARTI   IND   000001188785000000000000000000000000000000USD   0250091000000000000000           0        0      0         
H MC20150417*I  AS31   IND   000006037401000000000000000000000000000000AUD   0250091000000000000000           0        0      0         
H MC20150417*I  AS51   IND   000005877870000000000000000000000000000000AUD   0250091000000000000000           0        0      0         
H MC20150417*I  B50BRT IND   000000752830000000000000000000000000000000USD   0250091000000000000000           0        0      0         
H MC20150417*I  B50IND IND   000000557440000000000000000000000000000000USD   0250091000000000000000           0        0      0         
H MC20150417*I  BADX   IND   000000956440000000000000000000000000000000EUR   0250091000000000000000           0        0      0         
H MC20150417*I  BCEX6T IND   000000173404000000000000000000000000000000EUR   0250091000000000000000           0        0      0         
H MC20150417*I  BCOMRSTIND   000000492704600000000000000000000000000000USD   0250091000000000000000           0        0      0         
H MC20150417*I  BCOMTR IND   000000205084100000000000000000000000000000USD   0250091000000000000000           0        0      0         
H MC20150417*I  BEL20  IND   000003785490000000000000000000000000000000EUR   0250091000000000000000           0        0      0         
H MC20150417*I  BKDEATRIND   000001775650000000000000000000000000000000USD   0250091000000000000000           0        0      0         
H MC20150417*I  BKDEMT IND   000001232660000000000000000000000000000000USD   0250091000000000000000           0        0      0         
H MC20150417*I  BKRUST IND   000000964270000000000000000000000000000000USD   0250091000000000000000           0        0      0         
H MC20150417*I  BNPP   IND   000001380284300000000000000000000000000000EUR   0250091000000000000000           0        0      0         
H MC20150417*I  BRIC50TIND   000000826480000000000000000000000000000000USD   0250091000000000000000           0        0      0         
H MC20150417*I  BSE100 IND   000008744760000000000000000000000000000000INR   0250091000000000000000           0        0      0         
H MC20150417*I  BSILVERIND   000000184630000000000000000000000000000000USD   0250091000000000000000           0        0      0         
H MC20150417*I  BUC1TRUIND   000000195790000000000000000000000000000000USD   0250091000000000000000           0        0      0         
H MC20150417*I  BUSBUILIND   000000207930000000000000000000000000000000USD   0250091000000000000000           0        0      0         
H MC20150417*I  BUSMINGIND   000000118820000000000000000000000000000000USD   0250091000000000000000           0        0      0         
H MC20150417*I  BUSTEXTIND   000000130910000000000000000000000000000000USD   0250091000000000000000           0        0      0         
H MC20150417*I  BVLX   IND   000002685100000000000000000000000000000000EUR   0250091000000000000000           0        0      0         
H MC20150417*I  BXIIAR7IND   000000241710200000000000000000000000000000USD   0250091000000000000000           0        0      0         
H MC20150417*I  BXIICS1IND   000000417416100000000000000000000000000000USD   0250091000000000000000           0        0      0         
H MC20150417*I  BXTRNIFIND   000011353680000000000000000000000000000000INR   0250091000000000000000           0        0      0         
H MC20150417*I  CAC    IND   000005143260000000000000000000000000000000EUR   0250091000000000000000           0        0      0         
H MC20150417*I  CASXTRUIND   000000315340000000000000000000000000000000USD   0250091000000000000000           0        0      0         
H MC20150417*I  CCMP   IND   000004931814000000000000000000000000000000USD   0250091000000000000000           0        0      0         
H MC20150417*I  CECEEURIND   000001826960000000000000000000000000000000EUR   0250091000000000000000           0        0      0         
H MC20150417*I  COLCAP IND   000001507020000000000000000000000000000000COP   0250091000000000000000           0        0      0         
H MC20150417*I  COLOM20IND   000001726410000000000000000000000000000000COP   0250091000000000000000           0        0      0         
H MC20150417*I  COMP   IND   000006311320000000000000000000000000000000USD   0250091000000000000000           0        0      0         
H MC20150417*I  COMXCOPIND   000018110000000000000000000000000000000000USD   0250091000000000000000           0        0      0         
H MC20150417*I  CPQ    IND   000000325370000000000000000000000000000000USD   0250091000000000000000           0        0      0         
H MC20150417*I  CSGER  IND   000000576990000000000000000000000000000000EUR   0250091000000000000000           0        0      0         
H MC20150417*I  CSI    IND   000004596135600000000000000000000000000000CNY   0250091000000000000000           0        0      0         
H MC20150417*I  CSLATAMIND   000000225807800000000000000000000000000000USD   0250091000000000000000           0        0      0         
H MC20150417*I  CSSUI  IND   000000237192000000000000000000000000000000CHF   0250091000000000000000           0        0      0         
H MC20150417*I  CSSUIP IND   000000271997000000000000000000000000000000CHF   0250091000000000000000           0        0      0         
H MC20150417*I  CSSUITRIND   000000319115000000000000000000000000000000CHF   0250091000000000000000           0        0      0         
H MC20150417*I  DAX    IND   000011688700000000000000000000000000000000EUR   0250091000000000000000           0        0      0         
H MC20150417*I  DBCMBDEIND   000000185790000000000000000000000000000000USD   0250091000000000000000           0        0      0         
H MC20150417*I  DBDSUS5IND   000000232790000000000000000000000000000000USD   0250091000000000000000           0        0      0         
H MC20150417*I  DBLCIX IND   000000367980000000000000000000000000000000USD   0250091000000000000000           0        0      0         
H MC20150417*I  DEFICA IND   000000111800000000000000000000000000000000USD   0250091000000000000000           0        0      0         
H MC20150417*I  DEFIDMCIND   000000107360000000000000000000000000000000USD   0250091000000000000000           0        0      0         
H MC20150417*I  DEFIEDCIND   000000084520000000000000000000000000000000USD   0250091000000000000000           0        0      0         
H MC20150417*I  DEFIES IND   000000137220000000000000000000000000000000USD   0250091000000000000000           0        0      0         
H MC20150417*I  DEFIEU IND   000000111350000000000000000000000000000000USD   0250091000000000000000           0        0      0         
H MC20150417*I  DEFIGM IND   000000144310000000000000000000000000000000USD   0250091000000000000000           0        0      0         
H MC20150417*I  DEFILCCIND   000000627440000000000000000000000000000000USD   0250091000000000000000           0        0      0         
H MC20150417*I  DJDVY  IND   000001423470000000000000000000000000000000USD   0250091000000000000000           0        0      0         
H MC20150417*I  DJGSD  IND   000000242870000000000000000000000000000000USD   0250091000000000000000           0        0      0         
H MC20150417*I  DJGT   IND   000000241230000000000000000000000000000000USD   0250091000000000000000           0        0      0         
H MC20150417*I  DJGTE  IND   000000298900000000000000000000000000000000EUR   0250091000000000000000           0        0      0         
H MC20150417*I  DJI    IND   000016606270000000000000000000000000000000USD   0250091000000000000000           0        0      0         
H MC20150417*I  DJP    IND   000000028970000000000000000000000000000000USD   0250091000000000000000           0        0      0         
H MC20150417*I  DJSASD IND   000015236600000000000000000000000000000000USD   0250091000000000000000           0        0      0         
H MC20150417*I  DJSHMB IND   000004917300000000000000000000000000000000USD   0250091000000000000000           0        0      0         
H MC20150417*I  DJSOEP IND   000009956420000000000000000000000000000000USD   0250091000000000000000           0        0      0         
H MC20150417*I  DJST   IND   000003647230000000000000000000000000000000EUR   0250091000000000000000           0        0      0         
H MC20150417*I  DJT    IND   000008647500000000000000000000000000000000USD   0250091000000000000000           0        0      0         
H MC20150417*I  DJUBAGTIND   000000146200300000000000000000000000000000USD   0250091000000000000000           0        0      0         
H MC20150417*I  DJUBCLTIND   000000548296100000000000000000000000000000USD   0250091000000000000000           0        0      0         
H MC20150417*I  DJUBENTIND   000000204572100000000000000000000000000000USD   0250091000000000000000           0        0      0         
H MC20150417*I  DJUBGRTIND   000000110073800000000000000000000000000000USD   0250091000000000000000           0        0      0         
H MC20150417*I  DJUBHGTIND   000000661438400000000000000000000000000000USD   0250091000000000000000           0        0      0         
H MC20150417*I  DJUBINTIND   000000277237000000000000000000000000000000USD   0250091000000000000000           0        0      0         
H MC20150417*I  DJUBSTRIND   000000271112100000000000000000000000000000USD   0250091000000000000000           0        0      0         
H MC20150417*I  DJUSEN IND   000000687130000000000000000000000000000000USD   0250091000000000000000           0        0      0         
H MC20150417*I  DJUSFN *     000000441810000000000000000000000000000000USD   0250091000000000000000           0        0      0         
H MC20150417*I  DJUSGL IND   000001838550000000000000000000000000000000USD   0250091000000000000000           0        0      0         
H MC20150417*I  DJUSGM IND   000004329390000000000000000000000000000000USD   0250091000000000000000           0        0      0         
H MC20150417*I  DJUSGR IND   000002263420000000000000000000000000000000USD   0250091000000000000000           0        0      0         
H MC20150417*I  DJUSGS IND   000003798920000000000000000000000000000000USD   0250091000000000000000           0        0      0         
H MC20150417*I  DJUSHCTIND   000001148360000000000000000000000000000000USD   0250091000000000000000           0        0      0         
H MC20150417*I  DJUSTC IND   000001079510000000000000000000000000000000USD   0250091000000000000000           0        0      0         
H MC20150417*I  DJUSVA IND   000002365660000000000000000000000000000000USD   0250091000000000000000           0        0      0         
H MC20150417*I  DJUSVL IND   000002037380000000000000000000000000000000USD   0250091000000000000000           0        0      0         
H MC20150417*I  DJUSVM IND   000003968910000000000000000000000000000000USD   0250091000000000000000           0        0      0         
H MC20150417*I  DJUSVS IND   000003290240000000000000000000000000000000USD   0250091000000000000000           0        0      0         
H MC20150417*I  DWC    IND   000021822750000000000000000000000000000000USD   0250091000000000000000           0        0      0         
H MC20150417*I  DYNM   IND   000000151801500000000000000000000000000000USD   0250091000000000000000           0        0      0         
H MC20150417*I  EEJPUS5IND   000000131730000000000000000000000000000000USD   0250091000000000000000           0        0      0         
H MC20150417*I  EFJPUS8IND   000000127430000000000000000000000000000000USD   0250091000000000000000           0        0      0         
H MC20150417*I  EUROMTSIND   000000234610000000000000000000000000000000EUR   0250091000000000000000           0        0      0         
H MC20150417*I  FBMKLCIIND   000001845860000000000000000000000000000000MYR   0250091000000000000000           0        0      0         
H MC20150417*I  FDFD   IND   000000000130000000000000000000000000000000USD   0250091000000000000000           0        0      0         
H MC20150417*I  FDTR   IND   000000000250000000000000000000000000000000USD   0250091000000000000000           0        0      0         
H MC20150417*I  FNR5TR IND   000000596430000000000000000000000000000000USD   0250091000000000000000           0        0      0         
H MC20150417*I  FR     IND   000000257480000000000000000000000000000000MPS   0250091000000000000000           0        0      0         
H MC20150417*I  FR10XTRIND   000011042050000000000000000000000000000000USD   0250091000000000000000           0        0      0         
H MC20150417*I  FTENGLUIND   000002325870000000000000000000000000000000USD   0250091000000000000000           0        0      0         
H MC20150417*I  FTITLMSIND   000024625120000000000000000000000000000000EUR   0250091000000000000000           0        0      0         
H MC20150417*I  FTSECHNIND   000017992670000000000000000000000000000000CNY   0250091000000000000000           0        0      0         
H MC20150417*I  FTSEEURIND   000000233088000000000000000000000000000000EUR   0250091000000000000000           0        0      0         
H MC20150417*I  FTSEFININD   000000242650000000000000000000000000000000USD   0250091000000000000000           0        0      0         
H MC20150417*I  FTSEJP IND   000000052060000000000000000000000000000000JPY   0250091000000000000000           0        0      0         
H MC20150417*I  FTSEMIBIND   000023044080000000000000000000000000000000EUR   0250091000000000000000           0        0      0         
H MC20150417*I  FTSEOILIND   000000402190000000000000000000000000000000USD   0250091000000000000000           0        0      0         
H MC20150417*I  FTSETNYIND   000000101300000000000000000000000000000000USD   0250091000000000000000           0        0      0         
H MC20150417*I  GDAXEX IND   000003657320000000000000000000000000000000EUR   0250091000000000000000           0        0      0         
H MC20150417*I  GDAXTR IND   000003657320000000000000000000000000000000EUR   0250091000000000000000           0        0      0         
H MC20150417*I  GDMNTR IND   000000613390000000000000000000000000000000USD   0250091000000000000000           0        0      0         
H MC20150417*I  GOLDLNPIND   000001203350000000000000000000000000000000USD   0250091000000000000000           0        0      0         
H MC20150417*I  GREXP  IND   000000477558400000000000000000000000000000EUR   0250091000000000000000           0        0      0         
H MC20150417*I  GSMB5  IND   000000112760000000000000000000000000000000USD   0250091000000000000000           0        0      0         
H MC20150417*I  GSREE96IND   000000229455600000000000000000000000000000USD   0250091000000000000000           0        0      0         
H MC20150417*I  H15T5Y IND   000000001310000000000000000000000000000000USD   0250091000000000000000           0        0      0         
H MC20150417*I  HDAX   IND   000006115490000000000000000000000000000000EUR   0250091000000000000000           0        0      0         
H MC20150417*I  HEDGNAVIND   000000449660000000000000000000000000000000USD   0250091000000000000000           0        0      0         
H MC20150417*I  HS60US IND   000000623590000000000000000000000000000000USD   0250091000000000000000           0        0      0         
H MC20150417*I  HS60USTIND   000000760676800000000000000000000000000000USD   0250091000000000000000           0        0      0         
H MC20150417*I  HSCEI  IND   000014536670000000000000000000000000000000HKD   0250091000000000000000           0        0      0         
H MC20150417*I  HSI    IND   000027653120000000000000000000000000000000HKD   0250091000000000000000           0        0      0         
H MC20150417*I  IBEX   IND   000011359400000000000000000000000000000000EUR   0250091000000000000000           0        0      0         
H MC20150417*I  IBOV   IND   000053954790000000000000000000000000000000BRL   0250091000000000000000           0        0      0         
H MC20150417*I  IBOXIG IND   000000258332600000000000000000000000000000USD   0250091000000000000000           0        0      0         
H MC20150417*I  IEN    IND   000000108920000000000000000000000000000000USD   0250091000000000000000           0        0      0         
H MC20150417*I  IGBVL  IND   000013044420000000000000000000000000000000PEN   0250091000000000000000           0        0      0         
H MC20150417*I  IGCX   IND   000008330120000000000000000000000000000000BRL   0250091000000000000000           0        0      0         
H MC20150417*I  IGX    IND   000001147530000000000000000000000000000000USD   0250091000000000000000           0        0      0         
H MC20150417*I  INDU   IND   000017826300000000000000000000000000000000USD   0250091000000000000000           0        0      0         
H MC20150417*I  IPSA   IND   000004018060000000000000000000000000000000CLP   0250091000000000000000           0        0      0         
H MC20150417*I  ISEQ   IND   000006249320000000000000000000000000000000EUR   0250091000000000000000           0        0      0         
H MC20150417*I  ITAG   IND   000011719190000000000000000000000000000000BRL   0250091000000000000000           0        0      0         
H MC20150417*I  IVBX2  IND   000007770850000000000000000000000000000000BRL   0250091000000000000000           0        0      0         
H MC20150417*I  IVX    IND   000000868880000000000000000000000000000000USD   0250091000000000000000           0        0      0         
H MC20150417*I  IXB    IND   000000525650000000000000000000000000000000USD   0250091000000000000000           0        0      0         
H MC20150417*I  IXBK   IND   000002670220000000000000000000000000000000USD   0250091000000000000000           0        0      0         
H MC20150417*I  IXBTR  IND   000001447800700000000000000000000000000000USD   0250091000000000000000           0        0      0         
H MC20150417*I  IXE    IND   000000822340000000000000000000000000000000USD   0250091000000000000000           0        0      0         
H MC20150417*I  IXI    IND   000000558490000000000000000000000000000000USD   0250091000000000000000           0        0      0         
H MC20150417*I  IXID   IND   000003995980000000000000000000000000000000USD   0250091000000000000000           0        0      0         
H MC20150417*I  IXITR  IND   000001711675400000000000000000000000000000USD   0250091000000000000000           0        0      0         
H MC20150417*I  IXM    IND   000000240940000000000000000000000000000000USD   0250091000000000000000           0        0      0         
H MC20150417*I  IXMTR  IND   000001607243700000000000000000000000000000USD   0250091000000000000000           0        0      0         
H MC20150417*I  IXR    IND   000000493000000000000000000000000000000000USD   0250091000000000000000           0        0      0         
H MC20150417*I  IXRTR  IND   000001919497900000000000000000000000000000USD   0250091000000000000000           0        0      0         
H MC20150417*I  IXT    IND   000000415510000000000000000000000000000000USD   0250091000000000000000           0        0      0         
H MC20150417*I  IXU    IND   000000446310000000000000000000000000000000USD   0250091000000000000000           0        0      0         
H MC20150417*I  IXUTR  IND   000001653313600000000000000000000000000000USD   0250091000000000000000           0        0      0         
H MC20150417*I  IXV    IND   000000735950000000000000000000000000000000USD   0250091000000000000000           0        0      0         
H MC20150417*I  IXY    IND   000000756760000000000000000000000000000000USD   0250091000000000000000           0        0      0         
H MC20150417*I  IXYTR  IND   000002176451900000000000000000000000000000USD   0250091000000000000000           0        0      0         
H MC20150417*I  KOSPI  IND   000002143500000000000000000000000000000000KRW   0250091000000000000000           0        0      0         
H MC20150417*I  KOSPI2 IND   000000268280000000000000000000000000000000KRW   0250091000000000000000           0        0      0         
H MC20150417*I  LATIBE2IND   000003680500000000000000000000000000000000EUR   0250091000000000000000           0        0      0         
H MC20150417*I  LATIBEBIND   000006190900000000000000000000000000000000EUR   0250091000000000000000           0        0      0         
H MC20150417*I  LATIBEXIND   000001880200000000000000000000000000000000EUR   0250091000000000000000           0        0      0         
H MC20150417*I  LBUSTRUIND   000001870100000000000000000000000000000000USD   0250091000000000000000           0        0      0         
H MC20150417*I  LF98TRUIND   000001649490000000000000000000000000000000USD   0250091000000000000000           0        0      0         
H MC20150417*I  LUXGEN IND   000000940621400000000000000000000000000000EUR   0250091000000000000000           0        0      0         
H MC20150417*I  LUXXX  IND   000001741622700000000000000000000000000000EUR   0250091000000000000000           0        0      0         
H MC20150417*I  M00IMVTIND   000002809367000000000000000000000000000000USD   0250091000000000000000           0        0      0         
H MC20150417*I  M1BR   IND   000000385885000000000000000000000000000000USD   0250091000000000000000           0        0      0         
H MC20150417*I  M1BR255IND   000004887330000000000000000000000000000000USD   0250091000000000000000           0        0      0         
H MC20150417*I  M1FM100IND   000001425768000000000000000000000000000000USD   0250091000000000000000           0        0      0         
H MC20150417*I  M2US5ININD   000002559040000000000000000000000000000000USD   0250091000000000000000           0        0      0         
H MC20150417*I  M2US5UTIND   000001799190000000000000000000000000000000USD   0250091000000000000000           0        0      0         
H MC20150417*I  MADX   IND   000008121130000000000000000000000000000000EUR   0250091000000000000000           0        0      0         
H MC20150417*I  MCX    IND   000017572430000000000000000000000000000000GBP   0250091000000000000000           0        0      0         
H MC20150417*I  MDYF   IND   000001660470000000000000000000000000000000USD   0250091000000000000000           0        0      0         
H MC20150417*I  MDYFT  IND   000002506590000000000000000000000000000000USD   0250091000000000000000           0        0      0         
H MC20150417*I  MERGDVGIND   000001763500000000000000000000000000000000USD   0250091000000000000000           0        0      0         
H MC20150417*I  MIACWI IND   000001090820000000000000000000000000000000USD   0250091000000000000000           0        0      0         
H MC20150417*I  MIAP   IND   000000229550000000000000000000000000000000USD   0250091000000000000000           0        0      0         
H MC20150417*I  MIAX   IND   000000417966000000000000000000000000000000USD   0250091000000000000000           0        0      0         
H MC20150417*I  MIBC   IND   000000537268000000000000000000000000000000USD   0250091000000000000000           0        0      0         
H MC20150417*I  MICEXC IND   000001656590000000000000000000000000000000RUB   0250091000000000000000           0        0      0         
H MC20150417*I  MID    IND   000001515800000000000000000000000000000000USD   0250091000000000000000           0        0      0         
H MC20150417*I  MIDG   IND   000001564151100000000000000000000000000000USD   0250091000000000000000           0        0      0         
H MC20150417*I  MIDK   IND   000022219340000000000000000000000000000000USD   0250091000000000000000           0        0      0         
H MC20150417*I  MIDKI  IND   000008273452000000000000000000000000000000USD   0250091000000000000000           0        0      0         
H MC20150417*I  MIEA   IND   000005241989000000000000000000000000000000USD   0250091000000000000000           0        0      0         
H MC20150417*I  MIEAIMIIND   000001063685000000000000000000000000000000USD   0250091000000000000000           0        0      0         
H MC20150417*I  MIEC   IND   000000271824000000000000000000000000000000USD   0250091000000000000000           0        0      0         
H MC20150417*I  MIEM   IND   000000439589000000000000000000000000000000USD   0250091000000000000000           0        0      0         
H MC20150417*I  MIEMU  IND   000000292148000000000000000000000000000000USD   0250091000000000000000           0        0      0         
H MC20150417*I  MIEMUH IND   000000320897000000000000000000000000000000USD   0250091000000000000000           0        0      0         
H MC20150417*I  MIEU   IND   000005924239000000000000000000000000000000USD   0250091000000000000000           0        0      0         
H MC20150417*I  MIEUV  IND   000010845380000000000000000000000000000000USD   0250091000000000000000           0        0      0         
H MC20150417*I  MIFI   IND   000000882491000000000000000000000000000000USD   0250091000000000000000           0        0      0         
H MC20150417*I  MIGD   IND   000000324329000000000000000000000000000000USD   0250091000000000000000           0        0      0         
H MC20150417*I  MIIN   IND   000000583110000000000000000000000000000000USD   0250091000000000000000           0        0      0         
H MC20150417*I  MIKR   IND   000000428980000000000000000000000000000000USD   0250091000000000000000           0        0      0         
H MC20150417*I  MILANR IND   000000439593000000000000000000000000000000USD   0250091000000000000000           0        0      0         
H MC20150417*I  MILATR IND   000006194650000000000000000000000000000000USD   0250091000000000000000           0        0      0         
H MC20150417*I  MIMEEE IND   000000360379000000000000000000000000000000USD   0250091000000000000000           0        0      0         
H MC20150417*I  MIMF   IND   000000822170000000000000000000000000000000USD   0250091000000000000000           0        0      0         
H MC20150417*I  MIMUATAIND   000000490890000000000000000000000000000000USD   0250091000000000000000           0        0      0         
H MC20150417*I  MIMUCHLIND   000001020840000000000000000000000000000000USD   0250091000000000000000           0        0      0         
H MC20150417*I  MIMUEMRIND   000001255850000000000000000000000000000000USD   0250091000000000000000           0        0      0         
H MC20150417*I  MIMUNETIND   000001349950000000000000000000000000000000USD   0250091000000000000000           0        0      0         
H MC20150417*I  MIMUPHIIND   000002348952000000000000000000000000000000USD   0250091000000000000000           0        0      0         
H MC20150417*I  MIMUPOLIND   000000647654000000000000000000000000000000USD   0250091000000000000000           0        0      0         
H MC20150417*I  MIMUTURIND   000001646880000000000000000000000000000000USD   0250091000000000000000           0        0      0         
H MC20150417*I  MIND   IND   000017156730000000000000000000000000000000USD   0250091000000000000000           0        0      0         
H MC20150417*I  MIPL   IND   000000508820000000000000000000000000000000USD   0250091000000000000000           0        0      0         
H MC20150417*I  MISX   IND   000001179060000000000000000000000000000000USD   0250091000000000000000           0        0      0         
H MC20150417*I  MIUS   IND   000001944160000000000000000000000000000000USD   0250091000000000000000           0        0      0         
H MC20150417*I  MIWD   IND   000000197266000000000000000000000000000000USD   0250091000000000000000           0        0      0         
H MC20150417*I  MIWOEN IND   000000243651000000000000000000000000000000USD   0250091000000000000000           0        0      0         
H MC20150417*I  MIWOFN IND   000000104662000000000000000000000000000000USD   0250091000000000000000           0        0      0         
H MC20150417*I  MIWOIT IND   000000143488000000000000000000000000000000USD   0250091000000000000000           0        0      0         
H MC20150417*I  MIWONR IND   000004729104000000000000000000000000000000USD   0250091000000000000000           0        0      0         
H MC20150417*I  MIWOTR IND   000006650339000000000000000000000000000000USD   0250091000000000000000           0        0      0         
H MC20150417*I  MIWOUS IND   000005278088000000000000000000000000000000USD   0250091000000000000000           0        0      0         
H MC20150417*I  MIWOV  IND   000007373326000000000000000000000000000000USD   0250091000000000000000           0        0      0         
H MC20150417*I  MSCICD IND   000003128040000000000000000000000000000000USD   0250091000000000000000           0        0      0         
H MC20150417*I  MSCICS IND   000002635910000000000000000000000000000000USD   0250091000000000000000           0        0      0         
H MC20150417*I  MSCIEN IND   000003377180000000000000000000000000000000USD   0250091000000000000000           0        0      0         
H MC20150417*I  MSCIFN IND   000001201400000000000000000000000000000000USD   0250091000000000000000           0        0      0         
H MC20150417*I  MSCIHC IND   000003181090000000000000000000000000000000USD   0250091000000000000000           0        0      0         
H MC20150417*I  MSCIIN IND   000002615430000000000000000000000000000000USD   0250091000000000000000           0        0      0         
H MC20150417*I  MSCIIT IND   000002516670000000000000000000000000000000USD   0250091000000000000000           0        0      0         
H MC20150417*I  MSCIMT IND   000002723610000000000000000000000000000000USD   0250091000000000000000           0        0      0         
H MC20150417*I  MSCINW IND   000002989890000000000000000000000000000000USD   0250091000000000000000           0        0      0         
H MC20150417*I  MSCITC IND   000001413950000000000000000000000000000000USD   0250091000000000000000           0        0      0         
H MC20150417*I  MSCIUT IND   000002426140000000000000000000000000000000USD   0250091000000000000000           0        0      0         
H MC20150417*I  MSDLCA IND   000001968650000000000000000000000000000000CAD   0250091000000000000000           0        0      0         
H MC20150417*I  MSDLE15IND   000001552052000000000000000000000000000000EUR   0250091000000000000000           0        0      0         
H MC20150417*I  MSDUE15IND   000001685820000000000000000000000000000000USD   0250091000000000000000           0        0      0         
H MC20150417*I  MSDUEMUIND   000000217630000000000000000000000000000000USD   0250091000000000000000           0        0      0         
H MC20150417*I  MSDUHK IND   000011107000000000000000000000000000000000USD   0250091000000000000000           0        0      0         
H MC20150417*I  MSDUJN IND   000002957922000000000000000000000000000000USD   0250091000000000000000           0        0      0         
H MC20150417*I  MSDUUK IND   000001417747000000000000000000000000000000USD   0250091000000000000000           0        0      0         
H MC20150417*I  MSDUWI IND   000001769010000000000000000000000000000000USD   0250091000000000000000           0        0      0         
H MC20150417*I  MSEIAFUIND   000001186244960000000000000000000000000000USD   0250091000000000000000           0        0      0         
H MC20150417*I  MSEURU$IND   000001296567000000000000000000000000000000USD   0250091000000000000000           0        0      0         
H MC20150417*I  MSMUPEUIND   000001187815000000000000000000000000000000USD   0250091000000000000000           0        0      0         
H MC20150417*I  MSPE   IND   000001294530000000000000000000000000000000EUR   0250091000000000000000           0        0      0         
H MC20150417*I  MUSM   IND   000001584199000000000000000000000000000000USD   0250091000000000000000           0        0      0         
H MC20150417*I  MUSQU  IND   000001599406000000000000000000000000000000USD   0250091000000000000000           0        0      0         
H MC20150417*I  MUSRWGTIND   000002013386000000000000000000000000000000USD   0250091000000000000000           0        0      0         
H MC20150417*I  MUSVWGTIND   000001956045000000000000000000000000000000USD   0250091000000000000000           0        0      0         
H MC20150417*I  MVEGPTTIND   000000927740000000000000000000000000000000USD   0250091000000000000000           0        0      0         
H MC20150417*I  MVFLTR IND   000001064870000000000000000000000000000000USD   0250091000000000000000           0        0      0         
H MC20150417*I  MVGDXJTIND   000000573170000000000000000000000000000000USD   0250091000000000000000           0        0      0         
H MC20150417*I  MVMORTRIND   000000935710000000000000000000000000000000USD   0250091000000000000000           0        0      0         
H MC20150417*I  MVOIHTRIND   000001976810000000000000000000000000000000USD   0250091000000000000000           0        0      0         
H MC20150417*I  MVPLNDTIND   000001206050000000000000000000000000000000USD   0250091000000000000000           0        0      0         
H MC20150417*I  MVPPHTRIND   000002988920000000000000000000000000000000EUR   0250091000000000000000           0        0      0         
H MC20150417*I  MVREMXTIND   000000619550000000000000000000000000000000USD   0250091000000000000000           0        0      0         
H MC20150417*I  MVRTHTRIND   000003135740000000000000000000000000000000EUR   0250091000000000000000           0        0      0         
H MC20150417*I  MVSCIFTIND   000001697480000000000000000000000000000000USD   0250091000000000000000           0        0      0         
H MC20150417*I  MVSMHTRIND   000001003560000000000000000000000000000000EUR   0250091000000000000000           0        0      0         
H MC20150417*I  MVVNMTRIND   000000770480000000000000000000000000000000USD   0250091000000000000000           0        0      0         
H MC20150417*I  MWMFT  IND   000006068940000000000000000000000000000000USD   0250091000000000000000           0        0      0         
H MC20150417*I  MXAPJ  IND   000000514930000000000000000000000000000000USD   0250091000000000000000           0        0      0         
H MC20150417*I  MXAT   IND   000000113787000000000000000000000000000000EUR   0250091000000000000000           0        0      0         
H MC20150417*I  MXAU   IND   000001201264000000000000000000000000000000AUD   0250091000000000000000           0        0      0         
H MC20150417*I  MXAXJ  IND   000000633620000000000000000000000000000000USD   0250091000000000000000           0        0      0         
H MC20150417*I  MXBR   IND   000001699104000000000000000000000000000000USD   0250091000000000000000           0        0      0         
H MC20150417*I  MXCA   IND   000001968960000000000000000000000000000000CAD   0250091000000000000000           0        0      0         
H MC20150417*I  MXDE   IND   000000155903000000000000000000000000000000EUR   0250091000000000000000           0        0      0         
H MC20150417*I  MXEA   IND   000001896060000000000000000000000000000000USD   0250091000000000000000           0        0      0         
H MC20150417*I  MXEF   IND   000001042675000000000000000000000000000000USD   0250091000000000000000           0        0      0         
H MC20150417*I  MXEM   IND   000000123902000000000000000000000000000000EUR   0250091000000000000000           0        0      0         
H MC20150417*I  MXEU   IND   000000137421000000000000000000000000000000EUR   0250091000000000000000           0        0      0         
H MC20150417*I  MXFR   IND   000000144731000000000000000000000000000000EUR   0250091000000000000000           0        0      0         
H MC20150417*I  MXGB   IND   000000445870000000000000000000000000000000GBP   0250091000000000000000           0        0      0         
H MC20150417*I  MXGBIM IND   000001047393000000000000000000000000000000GBP   0250091000000000000000           0        0      0         
H MC20150417*I  MXHK   IND   000014206477000000000000000000000000000000HKD   0250091000000000000000           0        0      0         
H MC20150417*I  MXIT   IND   000000065706000000000000000000000000000000EUR   0250091000000000000000           0        0      0         
H MC20150417*I  MXJP   IND   000000978292000000000000000000000000000000JPY   0250091000000000000000           0        0      0         
H MC20150417*I  MXLA   IND   000002614844000000000000000000000000000000USD   0250091000000000000000           0        0      0         
H MC20150417*I  MXMS   IND   000000516650000000000000000000000000000000USD   0250091000000000000000           0        0      0         
H MC20150417*I  MXMU   IND   000000323090000000000000000000000000000000USD   0250091000000000000000           0        0      0         
H MC20150417*I  MXPC   IND   000002549427000000000000000000000000000000USD   0250091000000000000000           0        0      0         
H MC20150417*I  MXPCJ  IND   000001361666000000000000000000000000000000USD   0250091000000000000000           0        0      0         
H MC20150417*I  MXSE   IND   000012691960000000000000000000000000000000SEK   0250091000000000000000           0        0      0         
H MC20150417*I  MXUK   IND   000002055480000000000000000000000000000000GBP   0250091000000000000000           0        0      0         
H MC20150417*I  MXWD   IND   000000434010000000000000000000000000000000USD   0250091000000000000000           0        0      0         
H MC20150417*I  MXWD000IND   000000180380000000000000000000000000000000USD   0250091000000000000000           0        0      0         
H MC20150417*I  MXWO   IND   000001769010000000000000000000000000000000USD   0250091000000000000000           0        0      0         
H MC20150417*I  MZUSB  IND   000002371750000000000000000000000000000000USD   0250091000000000000000           0        0      0         
H MC20150417*I  MZUSC  IND   000003533390000000000000000000000000000000USD   0250091000000000000000           0        0      0         
H MC20150417*I  MZUSI  IND   000002461920000000000000000000000000000000USD   0250091000000000000000           0        0      0         
H MC20150417*I  MZUSIV IND   000002085750000000000000000000000000000000USD   0250091000000000000000           0        0      0         
H MC20150417*I  MZUSL  IND   000002183500000000000000000000000000000000USD   0250091000000000000000           0        0      0         
H MC20150417*I  MZUSM  IND   000003480910000000000000000000000000000000USD   0250091000000000000000           0        0      0         
H MC20150417*I  MZUSP  IND   000002359850000000000000000000000000000000USD   0250091000000000000000           0        0      0         
H MC20150417*I  MZUSS  IND   000003518900000000000000000000000000000000USD   0250091000000000000000           0        0      0         
H MC20150417*I  NBI    IND   000003730390000000000000000000000000000000USD   0250091000000000000000           0        0      0         
H MC20150417*I  NDDLAS IND   000004874350000000000000000000000000000000AUD   0250091000000000000000           0        0      0         
H MC20150417*I  NDDLCA IND   000005731260000000000000000000000000000000CAD   0250091000000000000000           0        0      0         
H MC20150417*I  NDDLEMUIND   000000331359000000000000000000000000000000EUR   0250091000000000000000           0        0      0         
H MC20150417*I  NDDLFR IND   000005571027000000000000000000000000000000EUR   0250091000000000000000           0        0      0         
H MC20150417*I  NDDLGR IND   000002588493000000000000000000000000000000EUR   0250091000000000000000           0        0      0         
H MC20150417*I  NDDLHK IND   000060643065000000000000000000000000000000HKD   0250091000000000000000           0        0      0         
H MC20150417*I  NDDLIT IND   000002011550000000000000000000000000000000EUR   0250091000000000000000           0        0      0         
H MC20150417*I  NDDLJN IND   000001776960000000000000000000000000000000JPY   0250091000000000000000           0        0      0         
H MC20150417*I  NDDLUK IND   000009692249000000000000000000000000000000GBP   0250091000000000000000           0        0      0         
H MC20150417*I  NDDUAS IND   000003381306000000000000000000000000000000USD   0250091000000000000000           0        0      0         
H MC20150417*I  NDDUAT IND   000002400881000000000000000000000000000000USD   0250091000000000000000           0        0      0         
H MC20150417*I  NDDUCA IND   000005071468000000000000000000000000000000USD   0250091000000000000000           0        0      0         
H MC20150417*I  NDDUEMUIND   000000280830000000000000000000000000000000USD   0250091000000000000000           0        0      0         
H MC20150417*I  NDDUFR IND   000005082269000000000000000000000000000000USD   0250091000000000000000           0        0      0         
H MC20150417*I  NDDUGR IND   000005348521000000000000000000000000000000USD   0250091000000000000000           0        0      0         
H MC20150417*I  NDDUHK IND   000055539867000000000000000000000000000000USD   0250091000000000000000           0        0      0         
H MC20150417*I  NDDUIT IND   000000886566000000000000000000000000000000USD   0250091000000000000000           0        0      0         
H MC20150417*I  NDDUJN IND   000005372734000000000000000000000000000000USD   0250091000000000000000           0        0      0         
H MC20150417*I  NDDUKOKIND   000005291616000000000000000000000000000000USD   0250091000000000000000           0        0      0         
H MC20150417*I  NDDUSW IND   000020933430000000000000000000000000000000USD   0250091000000000000000           0        0      0         
H MC20150417*I  NDDUUK IND   000006045016000000000000000000000000000000USD   0250091000000000000000           0        0      0         
H MC20150417*I  NDDUWI IND   000004729104000000000000000000000000000000USD   0250091000000000000000           0        0      0         
H MC20150417*I  NDDUWIFIND   000000706433000000000000000000000000000000USD   0250091000000000000000           0        0      0         
H MC20150417*I  NDELCHFIND   000000373249000000000000000000000000000000USD   0250091000000000000000           0        0      0         
H MC20150417*I  NDELSCHIND   000000388657000000000000000000000000000000CLP   0250091000000000000000           0        0      0         
H MC20150417*I  NDEUCHFIND   000000529012000000000000000000000000000000USD   0250091000000000000000           0        0      0         
H MC20150417*I  NDEUSIAIND   000000583110000000000000000000000000000000USD   0250091000000000000000           0        0      0         
H MC20150417*I  NDLEBRAIND   000000595263000000000000000000000000000000BRL   0250091000000000000000           0        0      0         
H MC20150417*I  NDQ    IND   000003677334000000000000000000000000000000USD   0250091000000000000000           0        0      0         
H MC20150417*I  NDUEACWIND   000000199197000000000000000000000000000000USD   0250091000000000000000           0        0      0         
H MC20150417*I  NDUEBRAIND   000000522685000000000000000000000000000000USD   0250091000000000000000           0        0      0         
H MC20150417*I  NDUEBRI*     000000449892000000000000000000000000000000USD   0250091000000000000000           0        0      0         
H MC20150417*I  NDUECAPIND   000000429921000000000000000000000000000000USD   0250091000000000000000           0        0      0         
H MC20150417*I  NDUECAXIND   000000417966000000000000000000000000000000USD   0250091000000000000000           0        0      0         
H MC20150417*I  NDUEEGFIND   000000439589000000000000000000000000000000USD   0250091000000000000000           0        0      0         
H MC20150417*I  NDUEEMEIND   000000360380000000000000000000000000000000USD   0250091000000000000000           0        0      0         
H MC20150417*I  NDX    IND   000004351799000000000000000000000000000000USD   0250091000000000000000           0        0      0         
H MC20150417*I  NEY    IND   000000323390000000000000000000000000000000JPY   0250091000000000000000           0        0      0         
H MC20150417*I  NIFTY  IND   000008606000000000000000000000000000000000INR   0250091000000000000000           0        0      0         
H MC20150417*I  NKY    IND   000019652880000000000000000000000000000000JPY   0250091000000000000000           0        0      0         
H MC20150417*I  NMX    IND   000003845530000000000000000000000000000000GBP   0250091000000000000000           0        0      0         
H MC20150417*I  NTR4GS IND   000002075346700000000000000000000000000000USD   0250091000000000000000           0        0      0         
H MC20150417*I  NYA    IND   000011058450000000000000000000000000000000USD   0250091000000000000000           0        0      0         
H MC20150417*I  NYIID  IND   000005587820000000000000000000000000000000USD   0250091000000000000000           0        0      0         
H MC20150417*I  NZX    IND   000005861482000000000000000000000000000000NZD   0250091000000000000000           0        0      0         
H MC20150417*I  OBX    IND   000000590590000000000000000000000000000000NOK   0250091000000000000000           0        0      0         
H MC20150417*I  OEX    IND   000000909870000000000000000000000000000000USD   0250091000000000000000           0        0      0         
H MC20150417*I  OEXA   IND   000000909870000000000000000000000000000000USD   0250091000000000000000           0        0      0         
H MC20150417*I  OOI    IND   000001571470000000000000000000000000000000USD   0250091000000000000000           0        0      0         
H MC20150417*I  OSE3020*     000001068730000000000000000000000000000000NOK   0250091000000000000000           0        0      0         
H MC20150417*I  P40GLB IND   000000295110000000000000000000000000000000USD   0250091000000000000000           0        0      0         
H MC20150417*I  PLTMLNPIND   000001483000000000000000000000000000000000USD   0250091000000000000000           0        0      0         
H MC20150417*I  QSI    IND   000011979830000000000000000000000000000000QA    0250091000000000000000           0        0      0         
H MC20150417*I  R3TH   IND   000001134480000000000000000000000000000000USD   0250091000000000000000           0        0      0         
H MC20150417*I  RAY    IND   000001246670000000000000000000000000000000USD   0250091000000000000000           0        0      0         
H MC20150417*I  RDXUSD IND   000001213130000000000000000000000000000000USD   0250091000000000000000           0        0      0         
H MC20150417*I  RICISOTIND   000000985109990000000000000000000000000000USD   0250091000000000000000           0        0      0         
H MC20150417*I  RLGTRI IND   000000921560000000000000000000000000000000USD   0250091000000000000000           0        0      0         
H MC20150417*I  RLVTRI IND   000001211490000000000000000000000000000000USD   0250091000000000000000           0        0      0         
H MC20150417*I  RMCGTRIIND   000002230390000000000000000000000000000000USD   0250091000000000000000           0        0      0         
H MC20150417*I  RMCVTRIIND   000003073740000000000000000000000000000000USD   0250091000000000000000           0        0      0         
H MC20150417*I  RMV    IND   000001667180000000000000000000000000000000USD   0250091000000000000000           0        0      0         
H MC20150417*I  RTY    IND   000001126189000000000000000000000000000000USD   0250091000000000000000           0        0      0         
H MC20150417*I  RU10DT IND   000004844640000000000000000000000000000000USD   0250091000000000000000           0        0      0         
H MC20150417*I  RU20INTIND   000001251860000000000000000000000000000000USD   0250091000000000000000           0        0      0         
H MC20150417*I  RUATU  IND   000006089600000000000000000000000000000000USD   0250091000000000000000           0        0      0         
H MC20150417*I  RUBNU  IND   000001786650000000000000000000000000000000USD   0250091000000000000000           0        0      0         
H MC20150417*I  RUITR  IND   000006150090000000000000000000000000000000USD   0250091000000000000000           0        0      0         
H MC20150417*I  RUJTRI IND   000008941250000000000000000000000000000000USD   0250091000000000000000           0        0      0         
H MC20150417*I  RUOTRI IND   000005305300000000000000000000000000000000USD   0250091000000000000000           0        0      0         
H MC20150417*I  RUTTU  IND   000005227540000000000000000000000000000000USD   0250091000000000000000           0        0      0         
H MC20150417*I  RYY    IND   000001129780000000000000000000000000000000USD   0250091000000000000000           0        0      0         
H MC20150417*I  S5COND IND   000000596960000000000000000000000000000000USD   0250091000000000000000           0        0      0         
H MC20150417*I  S5CONS IND   000000504150000000000000000000000000000000USD   0250091000000000000000           0        0      0         
H MC20150417*I  S5ENRS IND   000000597810000000000000000000000000000000USD   0250091000000000000000           0        0      0         
H MC20150417*I  S5FINL IND   000000325040000000000000000000000000000000USD   0250091000000000000000           0        0      0         
H MC20150417*I  S5HLTH IND   000000847410000000000000000000000000000000USD   0250091000000000000000           0        0      0         
H MC20150417*I  S5INDU IND   000000481200000000000000000000000000000000USD   0250091000000000000000           0        0      0         
H MC20150417*I  S5INFT IND   000000691810000000000000000000000000000000USD   0250091000000000000000           0        0      0         
H MC20150417*I  S5MATR IND   000000309792300000000000000000000000000000USD   0250091000000000000000           0        0      0         
H MC20150417*I  S5TELS IND   000000153020000000000000000000000000000000USD   0250091000000000000000           0        0      0         
H MC20150417*I  S5UTIL IND   000000224160000000000000000000000000000000USD   0250091000000000000000           0        0      0         
H MC20150417*I  SBDM13LIND   000000392939200000000000000000000000000000EUR   0250091000000000000000           0        0      0         
H MC20150417*I  SBDM35LIND   000000530672200000000000000000000000000000EUR   0250091000000000000000           0        0      0         
H MC20150417*I  SBG13EUIND   000000170486800000000000000000000000000000EUR   0250091000000000000000           0        0      0         
H MC20150417*I  SBG35EUIND   000000201181100000000000000000000000000000EUR   0250091000000000000000           0        0      0         
H MC20150417*I  SBG70EUIND   000000249569900000000000000000000000000000EUR   0250091000000000000000           0        0      0         
H MC20150417*I  SBR    IND   000002536880000000000000000000000000000000USD   0250091000000000000000           0        0      0         
H MC20150417*I  SBUS13LIND   000000481684900000000000000000000000000000USD   0250091000000000000000           0        0      0         
H MC20150417*I  SBUSL  IND   000000785645300000000000000000000000000000USD   0250091000000000000000           0        0      0         
H MC20150417*I  SET    IND   000001566850000000000000000000000000000000THB   0250091000000000000000           0        0      0         
H MC20150417*I  SGICAMXIND   000000102098600000000000000000000000000000USD   0250091000000000000000           0        0      0         
H MC20150417*I  SGICIMXIND   000000132669000000000000000000000000000000USD   0250091000000000000000           0        0      0         
H MC20150417*I  SGIXBU5IND   000001549713000000000000000000000000000000USD   0250091000000000000000           0        0      0         
H MC20150417*I  SGMDARSIND   000001591350000000000000000000000000000000USD   0250091000000000000000           0        0      0         
H MC20150417*I  SGX    IND   000001022250000000000000000000000000000000USD   0250091000000000000000           0        0      0         
H MC20150417*I  SHCOMP IND   000004287295500000000000000000000000000000CNY   0250091000000000000000           0        0      0         
H MC20150417*I  SHZ    IND   000000084910000000000000000000000000000000USD   0250091000000000000000           0        0      0         
H MC20150417*I  SLVRLN IND   000001942000000000000000000000000000000000USD   0250091000000000000000           0        0      0         
H MC20150417*I  SMI    IND   000009245920000000000000000000000000000000CHF   0250091000000000000000           0        0      0         
H MC20150417*I  SML    IND   000000714570000000000000000000000000000000USD   0250091000000000000000           0        0      0         
H MC20150417*I  SMLG   IND   000000525780000000000000000000000000000000USD   0250091000000000000000           0        0      0         
H MC20150417*I  SMLV   IND   000000477140000000000000000000000000000000USD   0250091000000000000000           0        0      0         
H MC20150417*I  SPBMWDTIND   000000844684500000000000000000000000000000USD   0250091000000000000000           0        0      0         
H MC20150417*I  SPBMWDUIND   000000326097000000000000000000000000000000USD   0250091000000000000000           0        0      0         
H MC20150417*I  SPC    IND   000000650030000000000000000000000000000000USD   0250091000000000000000           0        0      0         
H MC20150417*I  SPDYPETIND   000000841022800000000000000000000000000000USD   0250091000000000000000           0        0      0         
H MC20150417*I  SPEURO IND   000001649076700000000000000000000000000000EUR   0250091000000000000000           0        0      0         
H MC20150417*I  SPF    IND   000000325040000000000000000000000000000000USD   0250091000000000000000           0        0      0         
H MC20150417*I  SPGINTRIND   000000321499500000000000000000000000000000USD   0250091000000000000000           0        0      0         
H MC20150417*I  SPGSCTRIND   000003192587000000000000000000000000000000USD   0250091000000000000000           0        0      0         
H MC20150417*I  SPI    IND   000009279640000000000000000000000000000000CHF   0250091000000000000000           0        0      0         
H MC20150417*I  SPMIB  IND   000023044080000000000000000000000000000000EUR   0250091000000000000000           0        0      0         
H MC20150417*I  SPMVTR IND   000001737197900000000000000000000000000000USD   0250091000000000000000           0        0      0         
H MC20150417*I  SPR    IND   000000482454800000000000000000000000000000USD   0250091000000000000000           0        0      0         
H MC20150417*I  SPSGTR IND   000000736010400000000000000000000000000000USD   0250091000000000000000           0        0      0         
H MC20150417*I  SPSIHOTIND   000004148842800000000000000000000000000000USD   0250091000000000000000           0        0      0         
H MC20150417*I  SPSVTR IND   000000970057200000000000000000000000000000USD   0250091000000000000000           0        0      0         
H MC20150417*I  SPTICDPIND   000001162390000000000000000000000000000000USD   0250091000000000000000           0        0      0         
H MC20150417*I  SPTMI  IND   000002201150000000000000000000000000000000USD   0250091000000000000000           0        0      0         
H MC20150417*I  SPTPX  IND   000001336940000000000000000000000000000000JPY   0250091000000000000000           0        0      0         
H MC20150417*I  SPTR   IND   000003832329600000000000000000000000000000USD   0250091000000000000000           0        0      0         
H MC20150417*I  SPTR100IND   000001547740000000000000000000000000000000USD   0250091000000000000000           0        0      0         
H MC20150417*I  SPTSEM IND   000001001800000000000000000000000000000000CAD   0250091000000000000000           0        0      0         
H MC20150417*I  SPTSX  IND   000015360550000000000000000000000000000000CAD   0250091000000000000000           0        0      0         
H MC20150417*I  SPTSX60IND   000000894960000000000000000000000000000000CAD   0250091000000000000000           0        0      0         
H MC20150417*I  SPX    IND   000002081180000000000000000000000000000000USD   0250091000000000000000           0        0      0         
H MC20150417*I  SPXGTR IND   000002726590100000000000000000000000000000USD   0250091000000000000000           0        0      0         
H MC20150417*I  SPXT   IND   000003832330000000000000000000000000000000USD   0250091000000000000000           0        0      0         
H MC20150417*I  SPXTR  IND   000003832329600000000000000000000000000000USD   0250091000000000000000           0        0      0         
H MC20150417*I  SPXVTR IND   000004133245100000000000000000000000000000USD   0250091000000000000000           0        0      0         
H MC20150417*I  STEEL  IND   000000890810000000000000000000000000000000USD   0250091000000000000000           0        0      0         
H MC20150417*I  STOILP *     000003029100000000000000000000000000000000CAD   0250091000000000000000           0        0      0         
H MC20150417*I  STOXXNRIND   000006860170000000000000000000000000000000EUR   0250091000000000000000           0        0      0         
H MC20150417*I  SVX    IND   000000925800000000000000000000000000000000USD   0250091000000000000000           0        0      0         
H MC20150417*I  SX5E   IND   000003674050000000000000000000000000000000EUR   0250091000000000000000           0        0      0         
H MC20150417*I  SX5L   IND   000002822540000000000000000000000000000000USD   0250091000000000000000           0        0      0         
H MC20150417*I  SX5P   IND   000003507620000000000000000000000000000000EUR   0250091000000000000000           0        0      0         
H MC20150417*I  SX7E   IND   000000151820000000000000000000000000000000EUR   0250091000000000000000           0        0      0         
H MC20150417*I  SX7T   IND   000000307350000000000000000000000000000000EUR   0250091000000000000000           0        0      0         
H MC20150417*I  SXEE   IND   000000332660000000000000000000000000000000EUR   0250091000000000000000           0        0      0         
H MC20150417*I  SXEP   IND   000000341300000000000000000000000000000000EUR   0250091000000000000000           0        0      0         
H MC20150417*I  SXXR   IND   000000764130000000000000000000000000000000EUR   0250091000000000000000           0        0      0         
H MC20150417*I  SZCOMP IND   000002136270000000000000000000000000000000CNY   0250091000000000000000           0        0      0         
H MC20150417*I  TLZ    IND   000000131360000000000000000000000000000000USD   0250091000000000000000           0        0      0         
H MC20150417*I  TOPXC  IND   000000810210000000000000000000000000000000JPY   0250091000000000000000           0        0      0         
H MC20150417*I  TOPXDV IND   000002191160000000000000000000000000000000JPY   0250091000000000000000           0        0      0         
H MC20150417*I  TPX    IND   000001588690000000000000000000000000000000JPY   0250091000000000000000           0        0      0         
H MC20150417*I  TRINXD IND   000000781890000000000000000000000000000000USD   0250091000000000000000           0        0      0         
H MC20150417*I  TRINXF IND   000000504540000000000000000000000000000000USD   0250091000000000000000           0        0      0         
H MC20150417*I  TRINXI IND   000000720050000000000000000000000000000000USD   0250091000000000000000           0        0      0         
H MC20150417*I  TRINXM IND   000000489200000000000000000000000000000000USD   0250091000000000000000           0        0      0         
H MC20150417*I  TRINXS IND   000000816120000000000000000000000000000000USD   0250091000000000000000           0        0      0         
H MC20150417*I  TRINXU IND   000000517590000000000000000000000000000000USD   0250091000000000000000           0        0      0         
H MC20150417*I  TWII   IND   000009570930000000000000000000000000000000TWD   0250091000000000000000           0        0      0         
H MC20150417*I  UKX    IND   000006994630000000000000000000000000000000GBP   0250091000000000000000           0        0      0         
H MC20150417*I  USCRWTIIND   000000104950000000000000000000000000000000USD   0250091000000000000000           0        0      0         
H MC20150417*I  USG2TR IND   000000337642000000000000000000000000000000USD   0250091000000000000000           0        0      0         
H MC20150417*I  VIX    IND   000000013890000000000000000000000000000000USD   0250091000000000000000           0        0      0         
H MC20150417*I  WICOL  IND   000003460040000000000000000000000000000000USD   0250091000000000000000           0        0      0         
H MC20150417*I  WORLD  IND   000001769010000000000000000000000000000000USD   0250091000000000000000           0        0      0         
H MC20150417*I  WTDITR IND   000000589160000000000000000000000000000000USD   0250091000000000000000           0        0      0         
H MC20150417*I  WTDXFTRIND   000000560859000000000000000000000000000000USD   0250091000000000000000           0        0      0         
H MC20150417*I  WTEI   IND   000000302820000000000000000000000000000000USD   0250091000000000000000           0        0      0         
H MC20150417*I  WTEPSTRIND   000000317882600000000000000000000000000000USD   0250091000000000000000           0        0      0         
H MC20150417*I  WTHYE  IND   000000355840000000000000000000000000000000USD   0250091000000000000000           0        0      0         
H MC20150417*I  WTHYETRIND   000000320230000000000000000000000000000000USD   0250091000000000000000           0        0      0         
H MC20150417*I  WTIDAPXIND   000000227796800000000000000000000000000000USD   0250091000000000000000           0        0      0         
H MC20150417*I  WTIDESTIND   000000353195000000000000000000000000000000USD   0250091000000000000000           0        0      0         
H MC20150417*I  WTIDFATIND   000000440663000000000000000000000000000000USD   0250091000000000000000           0        0      0         
H MC20150417*I  WTIDJSTIND   000000050570000000000000000000000000000000USD   0250091000000000000000           0        0      0         
H MC20150417*I  WTIDLCTIND   000000284443400000000000000000000000000000USD   0250091000000000000000           0        0      0         
H MC20150417*I  WTIDSCTIND   000000333147200000000000000000000000000000USD   0250091000000000000000           0        0      0         
H MC20150417*I  WTIDXFTIND   000000393021100000000000000000000000000000USD   0250091000000000000000           0        0      0         
H MC20150417*I  WTLDITRIND   000000386520000000000000000000000000000000USD   0250091000000000000000           0        0      0         
H MC20150417*I  WTMDITRIND   000000444570000000000000000000000000000000USD   0250091000000000000000           0        0      0         
H MC20150417*I  WTMEITRIND   000000406903000000000000000000000000000000USD   0250091000000000000000           0        0      0         
H MC20150417*I  WTSDITRIND   000000393770000000000000000000000000000000USD   0250091000000000000000           0        0      0         
H MC20150417*I  WTSEITRIND   000000350530000000000000000000000000000000USD   0250091000000000000000           0        0      0         
H MC20150417*I  XAX    IND   000002517250000000000000000000000000000000USD   0250091000000000000000           0        0      0         
H MC20150417*I  XINOU  IND   000024452880000000000000000000000000000000HKD   0250091000000000000000           0        0      0         
H MC20150417*I  XMI    IND   000001862810000000000000000000000000000000USD   0250091000000000000000           0        0      0         
H MC20150417*I  XNDX   IND   000004776720000000000000000000000000000000USD   0250091000000000000000           0        0      0         
H MC201504171I  1305JP *     000000213927875000000000000000000000000000JPY   025009100000000000000JP30276200080        0      0         
H MC201504171I  1306JP *     000000211219928000000000000000000000000000JPY   025009100000000000000JP30276300070        0      0         
H MC201504171I  1310JP *     000000104062565000000000000000000000000000JPY   025009100000000000000JP30401000040        0      0         
H MC201504171I  1320JP *     000002606077373000000000000000000000000000JPY   025009100000000000000JP30276400060        0      0         
H MC201504171I  1612JP *     000000027079478000000000000000000000000000JPY   025009100000000000000JP30401300010        0      0         
H MC201504171I  AAXJ   *     000001038973480000000000000000000000000000USD   025009100000000000000US46428818290        0      0         
H MC201504171I  ACWI   *     000000940512176000000000000000000000000000USD   025009100000000000000US46428825790        0      0         
H MC201504171I  ACWV   *     000001114618712000000000000000000000000000USD   025009100000000000000US46428652510        0      0         
H MC201504171I  ACWX   *     000000710667048000000000000000000000000000USD   025009100000000000000US46428824050        0      0         
H MC201504171I  AFK    *     000000401501616000000000000000000000000000USD   025009100000000000000US57060U78710        0      0         
H MC201504171I  AGG    *     000001709980376000000000000000000000000000USD   025009100000000000000US46428722650        0      0         
H MC201504171I  AGZ    *     000001753774984000000000000000000000000000USD   025009100000000000000US46428816620        0      0         
H MC201504171I  AIGA   N     000000087818908000000000000000000000000000USD   025009100000000000000GB00B15KYH630        0      0         
H MC201504171I  AIGC   N     000000159061710000000000000000000000000000USD   025009100000000000000GB00B15KY9890        0      0         
H MC201504171I  AIGE   N     000000089579880000000000000000000000000000USD   025009100000000000000GB00B15KYB020        0      0         
H MC201504171I  AIGG   N     000000068471185000000000000000000000000000USD   025009100000000000000GB00B15KYL000        0      0         
H MC201504171I  AIGI   N     000000180691040000000000000000000000000000USD   025009100000000000000GB00B15KYG560        0      0         
H MC201504171I  ASDR   *     000001055051920000000000000000000000000000USD   025009100000000000000US00162Q82520        0      0         
H MC201504171I  ASHR   *     000000681113344000000000000000000000000000USD   025009100000000000000US23305187940        0      0         
H MC201504171I  AUSE   *     000000833935088000000000000000000000000000USD   025009100000000000000US97717W81020        0      0         
H MC201504171I  AXJL   *     000001068848753000000000000000000000000000USD   025009100000000000000US97717W82840        0      0         
H MC201504171I  BAB    *     000000467652912000000000000000000000000000USD   025009100000000000000US73937B40770        0      0         
H MC201504171I  BBH    *     000002021442728000000000000000000000000000USD   025009100000000000000US57060U18330        0      0         
H MC201504171I  BBVABSMN     000002288717601000000000000000000000000000EUR   025009100000000000000ES01053220040        0      0         
H MC201504171I  BBVADSMN     000000208404011000000000000000000000000000EUR   025009100000000000000ES01060610070        0      0         
H MC201504171I  BBVAESMN     000000607975859000000000000000000000000000EUR   025009100000000000000ES01053210300        0      0         
H MC201504171I  BBVALSMN     000000686889274000000000000000000000000000EUR   025009100000000000000ES01053040020        0      0         
H MC201504171I  BBVAMSMN     000001821613996000000000000000000000000000EUR   025009100000000000000ESO1060780010        0      0         
H MC201504171I  BIL    *     000000699948088000000000000000000000000000USD   025009100000000000000US78464A68000        0      0         
H MC201504171I  BIV    *     000001325629096000000000000000000000000000USD   025009100000000000000US92193781900        0      0         
H MC201504171I  BJK    *     000000574536256000000000000000000000000000USD   025009100000000000000US57060U82910        0      0         
H MC201504171I  BKF    *     000000614349536000000000000000000000000000USD   025009100000000000000US46428665720        0      0         
H MC201504171I  BLV    *     000001483810320000000000000000000000000000USD   025009100000000000000US92193779370        0      0         
H MC201504171I  BND    *     000001280303208000000000000000000000000000USD   025009100000000000000US92193783560        0      0         
H MC201504171I  BRF    *     000000272567840000000000000000000000000000USD   025009100000000000000US57060U61390        0      0         
H MC201504171I  BSV    *     000001233599168000000000000000000000000000USD   025009100000000000000US92193782730        0      0         
H MC201504171I  BWX    *     000000822450488000000000000000000000000000USD   025009100000000000000US78464A51660        0      0         
H MC201504171I  BZF    *     000000233979584000000000000000000000000000USD   025009100000000000000US97717W24020        0      0         
H MC201504171I  BZQ    *     000001259477800000000000000000000000000000USD   025009100000000000000US74348A67360        0      0         
H MC201504171I  CACFP  *     000000845613609000000000000000000000000000EUR   025009100000000000000FR00070527820        0      0         
H MC201504171I  CEW    *     000000283593056000000000000000000000000000USD   025009100000000000000US97717W13390        0      0         
H MC201504171I  CHIQ   *     000000226476312000000000000000000000000000USD   025009100000000000000US37950E40890        0      0         
H MC201504171I  CIU    *     000001699414544000000000000000000000000000USD   025009100000000000000US46428863800        0      0         
H MC201504171I  CLY    *     000000962792300000000000000000000000000000USD   025009100000000000000US46428951180        0      0         
H MC201504171I  CMDT   *     000000622226440000000000000000000000000000USD   025009100000000000000US45032K10250        0      0         
H MC201504171I  COPA   N     000000429141220000000000000000000000000000USD   025009100000000000000GB00B15KXQ890        0      0         
H MC201504171I  CORP   *     000001608762768000000000000000000000000000USD   025009100000000000000US72201R81700        0      0         
H MC201504171I  CRED   *     000001736165264000000000000000000000000000USD   025009100000000000000US46428862080        0      0         
H MC201504171I  CRUD   N     000000216369864000000000000000000000000000USD   025009100000000000000GB00B15KXV330        0      0         
H MC201504171I  CSJ    *     000001618103576000000000000000000000000000USD   025009100000000000000US46428864630        0      0         
H MC201504171I  CYB    *     000000391242040000000000000000000000000000USD   025009100000000000000US97717W18260        0      0         
H MC201504171I  DBA    *     000000340709800000000000000000000000000000USD   025009100000000000000US73936B40860        0      0         
H MC201504171I  DBB    *     000000239951576000000000000000000000000000USD   025009100000000000000US73936B70550        0      0         
H MC201504171I  DBC    *     000000274711632000000000000000000000000000USD   025009100000000000000US73935S10500        0      0         
H MC201504171I  DBE    *     000000265370824000000000000000000000000000USD   025009100000000000000US73936B10170        0      0         
H MC201504171I  DBEF   *     000000467040400000000000000000000000000000USD   025009100000000000000US23305120030        0      0         
H MC201504171I  DBEM   *     000000340097288000000000000000000000000000USD   025009100000000000000US23305110130        0      0         
H MC201504171I  DBEU   *     000000453258880000000000000000000000000000USD   025009100000000000000US23305185390        0      0         
H MC201504171I  DBGR   *     000000429983424000000000000000000000000000USD   025009100000000000000US23305140820        0      0         
H MC201504171I  DBJP   *     000000642831344000000000000000000000000000USD   025009100000000000000US23305150710        0      0         
H MC201504171I  DBO    *     000000225557544000000000000000000000000000USD   025009100000000000000US73936B50750        0      0         
H MC201504171I  DBP    *     000000570432426000000000000000000000000000USD   025009100000000000000US73936B20070        0      0         
H MC201504171I  DBV    *     000000386724764000000000000000000000000000USD   025009100000000000000US73935Y10290        0      0         
H MC201504171I  DDM    *     000002062940416000000000000000000000000000USD   025009100000000000000US74347R30570        0      0         
H MC201504171I  DEM    *     000000645587648000000000000000000000000000USD   025009100000000000000US97717W31520        0      0         
H MC201504171I  DES    *     000001093640176000000000000000000000000000USD   025009100000000000000US97717W60490        0      0         
H MC201504171I  DFE    *     000000879414104000000000000000000000000000USD   025009100000000000000US97717W86980        0      0         
H MC201504171I  DFJ    *     000000852463576000000000000000000000000000USD   025009100000000000000US97717W83670        0      0         
H MC201504171I  DGRO   *     000000402879768000000000000000000000000000USD   025009100000000000000US46434V62130        0      0         
H MC201504171I  DGRW   *     000000480668792000000000000000000000000000USD   025009100000000000000US97717X66910        0      0         
H MC201504171I  DGS    *     000000713270224000000000000000000000000000USD   025009100000000000000US97717W28160        0      0         
H MC201504171I  DGT    *     000001092903630000000000000000000000000000USD   025009100000000000000US78464A70630        0      0         
H MC201504171I  DHS    *     000000944493504000000000000000000000000000USD   025009100000000000000US97717W20890        0      0         
H MC201504171I  DIA    *     000002724759632000000000000000000000000000USD   025009100000000000000US78467X10900        0      0         
H MC201504171I  DIG    *     000000867316992000000000000000000000000000USD   025009100000000000000US74347R71990        0      0         
H MC201504171I  DJMCLN *     000000862484272000000000000000000000000000GBP   025009100000000000000IE00B02KXL920        0      0         
H MC201504171I  DLN    *     000001133453456000000000000000000000000000USD   025009100000000000000US97717W30790        0      0         
H MC201504171I  DLS    *     000000940052792000000000000000000000000000USD   025009100000000000000US97717W76090        0      0         
H MC201504171I  DOG    *     000000351811580000000000000000000000000000USD   025009100000000000000US74347R70170        0      0         
H MC201504171I  DOL    *     000000766865024000000000000000000000000000USD   025009100000000000000US97717W79480        0      0         
H MC201504171I  DON    *     000001311235064000000000000000000000000000USD   025009100000000000000US97717W50580        0      0         
H MC201504171I  DOO    *     000000689841640000000000000000000000000000USD   025009100000000000000US97717W78640        0      0         
H MC201504171I  DTD    *     000001145091184000000000000000000000000000USD   025009100000000000000US97717W10990        0      0         
H MC201504171I  DTN    *     000001174798016000000000000000000000000000USD   025009100000000000000US97717W40690        0      0         
H MC201504171I  DUG    *     000000724448568000000000000000000000000000USD   025009100000000000000US74348A52580        0      0         
H MC201504171I  DVY    *     000001200370392000000000000000000000000000USD   025009100000000000000US46428716890        0      0         
H MC201504171I  DVYE   *     000000670241256000000000000000000000000000USD   025009100000000000000US46428631990        0      0         
H MC201504171I  DWM    *     000000817091008000000000000000000000000000USD   025009100000000000000US97717W70390        0      0         
H MC201504171I  DXD    *     000000323253208000000000000000000000000000USD   025009100000000000000US74348A59020        0      0         
H MC201504171I  DXGE   *     000000472093624000000000000000000000000000USD   025009100000000000000US97717W44810        0      0         
H MC201504171I  DXJ    *     000000859966848000000000000000000000000000USD   025009100000000000000US97717W85160        0      0         
H MC201504171I  DZZ    *     000000108414624000000000000000000000000000USD   025009100000000000000US25154H75670        0      0         
H MC201504171I  E40    N     000000842473750000000000000000000000000000EUR   025009100000000000000FR00101504580        0      0         
H MC201504171I  EBRI   N     000000959805324000000000000000000000000000EUR   025009100000000000000LU03393627320        0      0         
H MC201504171I  ECH    *     000000646965800000000000000000000000000000USD   025009100000000000000US46428664080        0      0         
H MC201504171I  ECNS   *     000000879959240000000000000000000000000000USD   025009100000000000000US46429B20070        0      0         
H MC201504171I  EDC    *     000000434577264000000000000000000000000000USD   025009100000000000000US25459Y68670        0      0         
H MC201504171I  EDEN   *     000000821684848000000000000000000000000000USD   025009100000000000000US46429B52320        0      0         
H MC201504171I  EDV    *     000001998320400000000000000000000000000000USD   025009100000000000000US92191070940        0      0         
H MC201504171I  EDZ    *     000000416508160000000000000000000000000000USD   025009100000000000000US25459Y47060        0      0         
H MC201504171I  EEB    N     000000906427721000000000000000000000000000EUR   025009100000000000000LU03393629060        0      0         
H MC201504171I  EEM    *     000000653856560000000000000000000000000000USD   025009100000000000000US46428723490        0      0         
H MC201504171I  EEMV   *     000000946024784000000000000000000000000000USD   025009100000000000000US46428653350        0      0         
H MC201504171I  EES    *     000001308631888000000000000000000000000000USD   025009100000000000000US97717W56290        0      0         
H MC201504171I  EFA    *     000001010185416000000000000000000000000000USD   025009100000000000000US46428746590        0      0         
H MC201504171I  EFAV   *     000001038207840000000000000000000000000000USD   025009100000000000000US46429B68910        0      0         
H MC201504171I  EFG    *     000001100837192000000000000000000000000000USD   025009100000000000000US46428888570        0      0         
H MC201504171I  EFNL   *     000000532426056000000000000000000000000000USD   025009100000000000000US46429B51580        0      0         
H MC201504171I  EFV    *     000000837457032000000000000000000000000000USD   025009100000000000000US46428887740        0      0         
H MC201504171I  EGPT   *     000000821225464000000000000000000000000000USD   025009100000000000000US57061R56970        0      0         
H MC201504171I  EIA    N     000000855859465000000000000000000000000000EUR   025009100000000000000LU03393633830        0      0         
H MC201504171I  EIDO   *     000000422327024000000000000000000000000000USD   025009100000000000000US46429B30960        0      0         
H MC201504171I  EIRL   *     000000595821048000000000000000000000000000USD   025009100000000000000US46429B50750        0      0         
H MC201504171I  EIS    *     000000804075128000000000000000000000000000USD   025009100000000000000US46428663250        0      0         
H MC201504171I  ELD    *     000000625068496000000000000000000000000000USD   025009100000000000000US97717X86710        0      0         
H MC201504171I  EMB    *     000001736012136000000000000000000000000000USD   025009100000000000000US46428828190        0      0         
H MC201504171I  EMDR   US    000000765640000000000000000000000000000000USD   025009100000000000000US00162Q84190        0      0         
H MC201504171I  EMHY   *     000000747570896000000000000000000000000000USD   025009100000000000000US46428628520        0      0         
H MC201504171I  EMIF   *     000000541154352000000000000000000000000000USD   025009100000000000000US46428821650        0      0         
H MC201504171I  EMLC   *     000000313299888000000000000000000000000000USD   025009100000000000000US57060U52220        0      0         
H MC201504171I  ENOR   *     000000381901232000000000000000000000000000USD   025009100000000000000US46429B49950        0      0         
H MC201504171I  ENZL   *     000000632418640000000000000000000000000000USD   025009100000000000000US46428912320        0      0         
H MC201504171I  EPHE   *     000000641606320000000000000000000000000000USD   025009100000000000000US46429B40860        0      0         
H MC201504171I  EPI    *     000000352806912000000000000000000000000000USD   025009100000000000000US97717W42260        0      0         
H MC201504171I  EPOL   *     000000379451184000000000000000000000000000USD   025009100000000000000US46429B60650        0      0         
H MC201504171I  EPP    *     000000718629704000000000000000000000000000USD   025009100000000000000US46428666550        0      0         
H MC201504171I  EPS    *     000001102942702000000000000000000000000000USD   025009100000000000000US97717W58840        0      0         
H MC201504171I  EPU    *     000000454177648000000000000000000000000000USD   025009100000000000000US46428984270        0      0         
H MC201504171I  EREEUR N     000001982903595000000000000000000000000000EUR   025009100000000000000FR00106162920        0      0         
H MC201504171I  ERR    N     000000467177970000000000000000000000000000EUR   025009100000000000000LU03393631100        0      0         
H MC201504171I  ERUS   *     000000228620104000000000000000000000000000USD   025009100000000000000US46434G80690        0      0         
H MC201504171I  ESEEUR N     000001630082596000000000000000000000000000EUR   025009100000000000000FR00115501850        0      0         
H MC201504171I  ESR    *     000000293086992000000000000000000000000000USD   025009100000000000000US46428656650        0      0         
H MC201504171I  ETD    N     000000859990858000000000000000000000000000EUR   025009100000000000000FR00101290720        0      0         
H MC201504171I  ETX    N     000000824130363000000000000000000000000000EUR   025009100000000000000FR00102305160        0      0         
H MC201504171I  EUE    N     000000614734806000000000000000000000000000GBP   025009100000000000000IE00084710090        0      0         
H MC201504171I  EUFN   *     000000354338192000000000000000000000000000USD   025009100000000000000US46428918020        0      0         
H MC201504171I  EUO    *     000000406707968000000000000000000000000000USD   025009100000000000000US74347W88280        0      0         
H MC201504171I  EUSA   *     000000684022776000000000000000000000000000USD   025009100000000000000US46428668120        0      0         
H MC201504171I  EWA    *     000000356481984000000000000000000000000000USD   025009100000000000000US46428610370        0      0         
H MC201504171I  EWC    *     000000444224328000000000000000000000000000USD   025009100000000000000US46428650950        0      0         
H MC201504171I  EWD    *     000000513591312000000000000000000000000000USD   025009100000000000000US46428675620        0      0         
H MC201504171I  EWG    *     000000450043192000000000000000000000000000USD   025009100000000000000US46428680650        0      0         
H MC201504171I  EWH    *     000000357247624000000000000000000000000000USD   025009100000000000000US46428687190        0      0         
H MC201504171I  EWI    *     000000227395080000000000000000000000000000USD   025009100000000000000US46428685520        0      0         
H MC201504171I  EWJ    *     000000197994504000000000000000000000000000USD   025009100000000000000US46428684870        0      0         
H MC201504171I  EWK    *     000000263533288000000000000000000000000000USD   025009100000000000000US46428630170        0      0         
H MC201504171I  EWL    *     000000529976008000000000000000000000000000USD   025009100000000000000US46428674970        0      0         
H MC201504171I  EWM    *     000000209632232000000000000000000000000000USD   025009100000000000000US46428683050        0      0         
H MC201504171I  EWN    *     000000392926448000000000000000000000000000USD   025009100000000000000US46428681490        0      0         
H MC201504171I  EWO    *     000000250211152000000000000000000000000000USD   025009100000000000000US46428620270        0      0         
H MC201504171I  EWP    *     000000530129136000000000000000000000000000USD   025009100000000000000US46428676460        0      0         
H MC201504171I  EWQ    *     000000408392376000000000000000000000000000USD   025009100000000000000US46428670750        0      0         
H MC201504171I  EWS    *     000000205957160000000000000000000000000000USD   025009100000000000000US46428667390        0      0         
H MC201504171I  EWT    *     000000241482856000000000000000000000000000USD   025009100000000000000US46428673150        0      0         
H MC201504171I  EWU    *     000000288493152000000000000000000000000000USD   025009100000000000000US46434V54880        0      0         
H MC201504171I  EWW    *     000000912642880000000000000000000000000000USD   025009100000000000000US46428682220        0      0         
H MC201504171I  EWY    *     000000934387056000000000000000000000000000USD   025009100000000000000US46428677290        0      0         
H MC201504171I  EWZ    *     000000528827548000000000000000000000000000USD   025009100000000000000US46428640070        0      0         
H MC201504171I  EWZS   *     000000184519240000000000000000000000000000USD   025009100000000000000US46428913150        0      0         
H MC201504171I  EXHA   N     000002402157402000000000000000000000000000EUR   025009100000000000000DE00062894650        0      0         
H MC201504171I  EXHB   N     000001525062574000000000000000000000000000EUR   025009100000000000000DE00062894730        0      0         
H MC201504171I  EXHC   N     000001837561174000000000000000000000000000EUR   025009100000000000000DE00062894810        0      0         
H MC201504171I  EXI    *     000001115843736000000000000000000000000000USD   025009100000000000000US46428872970        0      0         
H MC201504171I  EXS1   N     000001717668137000000000000000000000000000EUR   025009100000000000000DE00059339310        0      0         
H MC201504171I  EXSA   N     000000672012457000000000000000000000000000EUR   025009100000000000000DE00026353070        0      0         
H MC201504171I  EXT    *     000001138812936000000000000000000000000000USD   025009100000000000000US97717W59670        0      0         
H MC201504171I  EXXY   N     000000397935816000000000000000000000000000EUR   025009100000000000000DE000A0H07280        0      0         
H MC201504171I  EZA    *     000001071130360000000000000000000000000000USD   025009100000000000000US46428678020        0      0         
H MC201504171I  EZM    *     000001474316384000000000000000000000000000USD   025009100000000000000US97717W57020        0      0         
H MC201504171I  EZU    *     000000594902280000000000000000000000000000USD   025009100000000000000US46428660850        0      0         
H MC201504171I  FAB    *     000000741920473000000000000000000000000000USD   025009100000000000000US33733C10800        0      0         
H MC201504171I  FAS    *     000001860045816000000000000000000000000000USD   025009100000000000000US25459Y69410        0      0         
H MC201504171I  FAZ    *     000000190031848000000000000000000000000000USD   025009100000000000000US25459Y44740        0      0         
H MC201504171I  FBT    *     000001842436096000000000000000000000000000USD   025009100000000000000US33733E20370        0      0         
H MC201504171I  FCAN   *     000000488937704000000000000000000000000000USD   025009100000000000000US33737J20870        0      0         
H MC201504171I  FCG    *     000000184212984000000000000000000000000000USD   025009100000000000000US33734J10250        0      0         
H MC201504171I  FCHI   *     000000964706400000000000000000000000000000USD   025009100000000000000US46428819020        0      0         
H MC201504171I  FDD    *     000000205957160000000000000000000000000000USD   025009100000000000000US33735T10970        0      0         
H MC201504171I  FDL    *     000000365210280000000000000000000000000000USD   025009100000000000000US33691710910        0      0         
H MC201504171I  FDM    *     000000519946124000000000000000000000000000USD   025009100000000000000US33718M10530        0      0         
H MC201504171I  FDN    *     000001005897832000000000000000000000000000USD   025009100000000000000US33733E30270        0      0         
H MC201504171I  FDT    *     000000792590528000000000000000000000000000USD   025009100000000000000US33737J17410        0      0         
H MC201504171I  FEM    *     000000371947912000000000000000000000000000USD   025009100000000000000US33737J18240        0      0         
H MC201504171I  FEMS   *     000000546207576000000000000000000000000000USD   025009100000000000000US33737J30770        0      0         
H MC201504171I  FEP    *     000000482046944000000000000000000000000000USD   025009100000000000000US33737J11700        0      0         
H MC201504171I  FEU    *     000000554017104000000000000000000000000000USD   025009100000000000000US78463X10370        0      0         
H MC201504171I  FEX    *     000000717404680000000000000000000000000000USD   025009100000000000000US33734K10970        0      0         
H MC201504171I  FEZ    *     000000594902280000000000000000000000000000USD   025009100000000000000US78463X20270        0      0         
H MC201504171I  FFR    *     000000689994768000000000000000000000000000USD   025009100000000000000US33736N10190        0      0         
H MC201504171I  FGD    *     000000398898440000000000000000000000000000USD   025009100000000000000US33734X20090        0      0         
H MC201504171I  FGM    *     000000589830681000000000000000000000000000USD   025009100000000000000US33737J19070        0      0         
H MC201504171I  FLOT   *     000000776052704000000000000000000000000000USD   025009100000000000000US46429B65520        0      0         
H MC201504171I  FLTR   *     000000380982464000000000000000000000000000USD   025009100000000000000US57060U51490        0      0         
H MC201504171I  FM     *     000000474696800000000000000000000000000000USD   025009100000000000000US46428614580        0      0         
H MC201504171I  FNI    *     000000486028272000000000000000000000000000USD   025009100000000000000US33733A10250        0      0         
H MC201504171I  FNX    *     000000839294568000000000000000000000000000USD   025009100000000000000US33735B10890        0      0         
H MC201504171I  FPX    *     000000826125560000000000000000000000000000USD   025009100000000000000US33692010390        0      0         
H MC201504171I  FRAK   *     000000368885352000000000000000000000000000USD   025009100000000000000US57060U15930        0      0         
H MC201504171I  FSEU50S*     000000605662278000000000000000000000000000EUR   025009100000000000000LU01362340680        0      0         
H MC201504171I  FTA    *     000000683102477000000000000000000000000000USD   025009100000000000000US33735J10160        0      0         
H MC201504171I  FTC    *     000000737464448000000000000000000000000000USD   025009100000000000000US33735K10880        0      0         
H MC201504171I  FTY    *     000000724601696000000000000000000000000000USD   025009100000000000000US46428852180        0      0         
H MC201504171I  FVD    *     000000370722888000000000000000000000000000USD   025009100000000000000US33734H10680        0      0         
H MC201504171I  FXA    *     000001192254608000000000000000000000000000USD   025009100000000000000US23129U10160        0      0         
H MC201504171I  FXB    *     000002248684680000000000000000000000000000USD   025009100000000000000US23129S10690        0      0         
H MC201504171I  FXC    *     000001245390024000000000000000000000000000USD   025009100000000000000US23129X10540        0      0         
H MC201504171I  FXD    *     000000563511040000000000000000000000000000USD   025009100000000000000US33734X10190        0      0         
H MC201504171I  FXE    *     000001628669408000000000000000000000000000USD   025009100000000000000US23130C10800        0      0         
H MC201504171I  FXF    *     000001567724464000000000000000000000000000USD   025009100000000000000US23129V10980        0      0         
H MC201504171I  FXG    *     000000680194576000000000000000000000000000USD   025009100000000000000US33734X11910        0      0         
H MC201504171I  FXH    *     000001032695232000000000000000000000000000USD   025009100000000000000US33734X14310        0      0         
H MC201504171I  FXI    *     000000766099384000000000000000000000000000USD   025009100000000000000US46428718460        0      0         
H MC201504171I  FXL    *     000000548198240000000000000000000000000000USD   025009100000000000000US33734X17610        0      0         
H MC201504171I  FXM    *     000001198226600000000000000000000000000000USD   025009100000000000000US23130H10770        0      0         
H MC201504171I  FXN    *     000000348825584000000000000000000000000000USD   025009100000000000000US33734X12740        0      0         
H MC201504171I  FXO    *     000000361075824000000000000000000000000000USD   025009100000000000000US33734X13570        0      0         
H MC201504171I  FXR    *     000000475309312000000000000000000000000000USD   025009100000000000000US33734X15060        0      0         
H MC201504171I  FXS    *     000001732643320000000000000000000000000000USD   025009100000000000000US23129R10860        0      0         
H MC201504171I  FXU    *     000000362607104000000000000000000000000000USD   025009100000000000000US33734X18450        0      0         
H MC201504171I  FXY    *     000001252740168000000000000000000000000000USD   025009100000000000000US23130A10250        0      0         
H MC201504171I  FXZ    *     000000491387752000000000000000000000000000USD   025009100000000000000US33734X16880        0      0         
H MC201504171I  FYX    *     000000776512088000000000000000000000000000USD   025009100000000000000US33734Y10910        0      0         
H MC201504171I  GBF    *     000001777203568000000000000000000000000000USD   025009100000000000000US46428859600        0      0         
H MC201504171I  GDX    *     000000301968416000000000000000000000000000USD   025009100000000000000US57060U10070        0      0         
H MC201504171I  GDXJ   *     000000377001136000000000000000000000000000USD   025009100000000000000US57061R54400        0      0         
H MC201504171I  GEX    *     000000934821940000000000000000000000000000USD   025009100000000000000US57061R59370        0      0         
H MC201504171I  GLD    *     000001770159680000000000000000000000000000USD   025009100000000000000US78463V10700        0      0         
H MC201504171I  GLL    *     000001454561341000000000000000000000000000USD   025009100000000000000US74347W39510        0      0         
H MC201504171I  GLTR   *     000000944600694000000000000000000000000000USD   025009100000000000000US26922W10990        0      0         
H MC201504171I  GMF    *     000001424090400000000000000000000000000000USD   025009100000000000000US78463X30170        0      0         
H MC201504171I  GML    *     000000777888709000000000000000000000000000USD   025009100000000000000US78463X70750        0      0         
H MC201504171I  GMM    *     000001043414192000000000000000000000000000USD   025009100000000000000US78463X50950        0      0         
H MC201504171I  GSG    *     000000322028184000000000000000000000000000USD   025009100000000000000US46428R10770        0      0         
H MC201504171I  GVI    *     000001715952368000000000000000000000000000USD   025009100000000000000US46428861250        0      0         
H MC201504171I  GWL    *     000000446061864000000000000000000000000000USD   025009100000000000000US78463X88910        0      0         
H MC201504171I  GWX    *     000000463365328000000000000000000000000000USD   025009100000000000000US78463X87190        0      0         
H MC201504171I  GXC    *     000001447672112000000000000000000000000000USD   025009100000000000000US78463X40070        0      0         
H MC201504171I  GXG    *     000000177322224000000000000000000000000000USD   025009100000000000000US37950E20000        0      0         
H MC201504171I  HAO    *     000000424011432000000000000000000000000000USD   025009100000000000000US18383Q85390        0      0         
H MC201504171I  HAP    *     000000532732312000000000000000000000000000USD   025009100000000000000US57060U79540        0      0         
H MC201504171I  HDV    *     000001180004368000000000000000000000000000USD   025009100000000000000US46429B66360        0      0         
H MC201504171I  HEDJ   *     000001013860488000000000000000000000000000USD   025009100000000000000US97717X70120        0      0         
H MC201504171I  HEWG   *     000000427686504000000000000000000000000000USD   025009100000000000000US46434V70470        0      0         
H MC201504171I  HEWJ   *     000000464437224000000000000000000000000000USD   025009100000000000000US46434V88620        0      0         
H MC201504171I  HEZU   *     000000449277552000000000000000000000000000USD   025009100000000000000US46434V63950        0      0         
H MC201504171I  HYD    *     000000479903152000000000000000000000000000USD   025009100000000000000US57060U87880        0      0         
H MC201504171I  HYEM   *     000000367507200000000000000000000000000000USD   025009100000000000000US57061R40390        0      0         
H MC201504171I  HYG    *     000001393924184000000000000000000000000000USD   025009100000000000000US46428851350        0      0         
H MC201504171I  HYS    *     000001561752472000000000000000000000000000USD   025009100000000000000US72201R78340        0      0         
H MC201504171I  IACC   LN    000000749561560000000000000000000000000000USD   025009100000000000000IE00B4L5ZD990        0      0         
H MC201504171I  IAI    *     000000649415848000000000000000000000000000USD   025009100000000000000US46428879410        0      0         
H MC201504171I  IAK    *     000000759821136000000000000000000000000000USD   025009100000000000000US46428878670        0      0         
H MC201504171I  IAT    *     000000529516624000000000000000000000000000USD   025009100000000000000US46428877840        0      0         
H MC201504171I  IAU    *     000000178240992000000000000000000000000000USD   025009100000000000000US46428510530        0      0         
H MC201504171I  IBB    *     000005458400688000000000000000000000000000USD   025009100000000000000US46428755650        0      0         
H MC201504171I  IBCI   N     000003458871189000000000000000000000000000GBP   025009100000000000000IE00B0M62X260        0      0         
