20150417*I  ADSM   IND   000005048580000AE
20150417*I  AEX    IND   000000495030000NL
20150417*I  AIJPMTUIND   000000099050000US
20150417*I  AORDA  IND   000050670173000AU
20150417*I  ARTI   IND   000001188785000US
20150417*I  AS31   IND   000006037401000AU
20150417*I  AS51   IND   000005877870000AU
20150417*I  B50BRT IND   000000752830000BR
20150417*I  B50IND IND   000000557440000US
20150417*I  BADX   IND   000000956440000ES
20150417*I  BCEX6T IND   000000173404000EC
20150417*I  BCOMRSTIND   000000492704600US
20150417*I  BCOMTR IND   000000205084100US
20150417*I  BEL20  IND   000003785490000BE
20150417*I  BKDEATRIND   000001775650000US
20150417*I  BKDEMT IND   000001232660000US
20150417*I  BKRUST IND   000000964270000US
20150417*I  BNPP   IND   000001380284300EC
20150417*I  BRIC50TIND   000000826480000US
20150417*I  BSE100 IND   000008744760000IN
20150417*I  BSILVERIND   000000184630000US
20150417*I  BUC1TRUIND   000000195790000US
20150417*I  BUSBUILIND   000000207930000US
20150417*I  BUSMINGIND   000000118820000US
20150417*I  BUSTEXTIND   000000130910000US
20150417*I  BVLX   IND   000002685100000PT
20150417*I  BXIIAR7IND   000000241710200US
20150417*I  BXIICS1IND   000000417416100US
20150417*I  BXTRNIFIND   000011353680000IN
20150417*I  CAC    IND   000005143260000FR
20150417*I  CASXTRUIND   000000315340000US
20150417*I  CCMP   IND   000004931814000US
20150417*I  CECEEURIND   000001826960000AS
20150417*I  COLCAP IND   000001507020000CO
20150417*I  COLOM20IND   000001726410000CO
20150417*I  COMP   IND   000006311320000US
20150417*I  COMXCOPIND   000018110000000US
20150417*I  CPQ    IND   000000325370000US
20150417*I  CSGER  IND   000000576990000DE
20150417*I  CSI    IND   000004596135600CN
20150417*I  CSLATAMIND   000000225807800US
20150417*I  CSSUI  IND   000000237192000CH
20150417*I  CSSUIP IND   000000271997000CH
20150417*I  CSSUITRIND   000000319115000CH
20150417*I  DAX    IND   000011688700000DE
20150417*I  DBCMBDEIND   000000185790000US
20150417*I  DBDSUS5IND   000000232790000US
20150417*I  DBLCIX IND   000000367980000US
20150417*I  DEFICA IND   000000111800000US
20150417*I  DEFIDMCIND   000000107360000US
20150417*I  DEFIEDCIND   000000084520000US
20150417*I  DEFIES IND   000000137220000US
20150417*I  DEFIEU IND   000000111350000US
20150417*I  DEFIGM IND   000000144310000US
20150417*I  DEFILCCIND   000000627440000US
20150417*I  DJDVY  IND   000001423470000US
20150417*I  DJGSD  IND   000000242870000US
20150417*I  DJGT   IND   000000241230000*M
20150417*I  DJGTE  IND   000000298900000*M
20150417*I  DJI    IND   000016606270000US
20150417*I  DJP    IND   000000028970000US
20150417*I  DJSASD IND   000015236600000US
20150417*I  DJSHMB IND   000004917300000US
20150417*I  DJSOEP IND   000009956420000US
20150417*I  DJST   IND   000003647230000EC
20150417*I  DJT    IND   000008647500000US
20150417*I  DJUBAGTIND   000000146200300US
20150417*I  DJUBCLTIND   000000548296100US
20150417*I  DJUBENTIND   000000204572100US
20150417*I  DJUBGRTIND   000000110073800US
20150417*I  DJUBHGTIND   000000661438400US
20150417*I  DJUBINTIND   000000277237000US
20150417*I  DJUBSTRIND   000000271112100US
20150417*I  DJUSEN IND   000000687130000US
20150417*I  DJUSFN *     000000441810000US
20150417*I  DJUSGL IND   000001838550000US
20150417*I  DJUSGM IND   000004329390000US
20150417*I  DJUSGR IND   000002263420000US
20150417*I  DJUSGS IND   000003798920000US
20150417*I  DJUSHCTIND   000001148360000US
20150417*I  DJUSTC IND   000001079510000US
20150417*I  DJUSVA IND   000002365660000US
20150417*I  DJUSVL IND   000002037380000US
20150417*I  DJUSVM IND   000003968910000US
20150417*I  DJUSVS IND   000003290240000US
20150417*I  DWC    IND   000021822750000US
20150417*I  DYNM   IND   000000151801500US
20150417*I  EEJPUS5IND   000000131730000US
20150417*I  EFJPUS8IND   000000127430000US
20150417*I  EUROMTSIND   000000234610000EO
20150417*I  FBMKLCIIND   000001845860000MY
20150417*I  FDFD   IND   000000000130000US
20150417*I  FDTR   IND   000000000250000US
20150417*I  FNR5TR IND   000000596430000US
20150417*I  FR     IND   000000257480000MX
20150417*I  FR10XTRIND   000011042050000US
20150417*I  FTENGLUIND   000002325870000US
20150417*I  FTITLMSIND   000024625120000IT
20150417*I  FTSECHNIND   000017992670000CN
20150417*I  FTSEEURIND   000000233088000EO
20150417*I  FTSEFININD   000000242650000US
20150417*I  FTSEJP IND   000000052060000JP
20150417*I  FTSEMIBIND   000023044080000IT
20150417*I  FTSEOILIND   000000402190000US
20150417*I  FTSETNYIND   000000101300000US
20150417*I  GDAXEX IND   000003657320000EO
20150417*I  GDAXTR IND   000003657320000EO
20150417*I  GDMNTR IND   000000613390000US
20150417*I  GOLDLNPIND   000001203350000US
20150417*I  GREXP  IND   000000477558400EO
20150417*I  GSMB5  IND   000000112760000US
20150417*I  GSREE96IND   000000229455600US
20150417*I  H15T5Y IND   000000001310000US
20150417*I  HDAX   IND   000006115490000DE
20150417*I  HEDGNAVIND   000000449660000US
20150417*I  HS60US IND   000000623590000US
20150417*I  HS60USTIND   000000760676800US
20150417*I  HSCEI  IND   000014536670000HK
20150417*I  HSI    IND   000027653120000HK
20150417*I  IBEX   IND   000011359400000ES
20150417*I  IBOV   IND   000053954790000BR
20150417*I  IBOXIG IND   000000258332600US
20150417*I  IEN    IND   000000108920000US
20150417*I  IGBVL  IND   000013044420000PE
20150417*I  IGCX   IND   000008330120000BR
20150417*I  IGX    IND   000001147530000US
20150417*I  INDU   IND   000017826300000US
20150417*I  IPSA   IND   000004018060000CL
20150417*I  ISEQ   IND   000006249320000IE
20150417*I  ITAG   IND   000011719190000BZ
20150417*I  IVBX2  IND   000007770850000BZ
20150417*I  IVX    IND   000000868880000US
20150417*I  IXB    IND   000000525650000US
20150417*I  IXBK   IND   000002670220000US
20150417*I  IXBTR  IND   000001447800700US
20150417*I  IXE    IND   000000822340000US
20150417*I  IXI    IND   000000558490000US
20150417*I  IXID   IND   000003995980000US
20150417*I  IXITR  IND   000001711675400US
20150417*I  IXM    IND   000000240940000US
20150417*I  IXMTR  IND   000001607243700US
20150417*I  IXR    IND   000000493000000US
20150417*I  IXRTR  IND   000001919497900US
20150417*I  IXT    IND   000000415510000US
20150417*I  IXU    IND   000000446310000US
20150417*I  IXUTR  IND   000001653313600US
20150417*I  IXV    IND   000000735950000US
20150417*I  IXY    IND   000000756760000US
20150417*I  IXYTR  IND   000002176451900US
20150417*I  KOSPI  IND   000002143500000KR
20150417*I  KOSPI2 IND   000000268280000SK
20150417*I  LATIBE2IND   000003680500000ES
20150417*I  LATIBEBIND   000006190900000ES
20150417*I  LATIBEXIND   000001880200000ES
20150417*I  LBUSTRUIND   000001870100000US
20150417*I  LF98TRUIND   000001649490000US
20150417*I  LUXGEN IND   000000940621400LU
20150417*I  LUXXX  IND   000001741622700LU
20150417*I  M00IMVTIND   000002809367000US
20150417*I  M1BR   IND   000000385885000US
20150417*I  M1BR255IND   000004887330000US
20150417*I  M1FM100IND   000001425768000US
20150417*I  M2US5ININD   000002559040000US
20150417*I  M2US5UTIND   000001799190000US
20150417*I  MADX   IND   000008121130000ES
20150417*I  MCX    IND   000017572430000GB
20150417*I  MDYF   IND   000001660470000US
20150417*I  MDYFT  IND   000002506590000US
20150417*I  MERGDVGIND   000001763500000US
20150417*I  MIACWI IND   000001090820000US
20150417*I  MIAP   IND   000000229550000US
20150417*I  MIAX   IND   000000417966000US
20150417*I  MIBC   IND   000000537268000US
20150417*I  MICEXC IND   000001656590000RU
20150417*I  MID    IND   000001515800000US
20150417*I  MIDG   IND   000001564151100US
20150417*I  MIDK   IND   000022219340000US
20150417*I  MIDKI  IND   000008273452000US
20150417*I  MIEA   IND   000005241989000US
20150417*I  MIEAIMIIND   000001063685000US
20150417*I  MIEC   IND   000000271824000US
20150417*I  MIEM   IND   000000439589000US
20150417*I  MIEMU  IND   000000292148000US
20150417*I  MIEMUH IND   000000320897000US
20150417*I  MIEU   IND   000005924239000US
20150417*I  MIEUV  IND   000010845380000US
20150417*I  MIFI   IND   000000882491000US
20150417*I  MIGD   IND   000000324329000US
20150417*I  MIIN   IND   000000583110000US
20150417*I  MIKR   IND   000000428980000US
20150417*I  MILANR IND   000000439593000US
20150417*I  MILATR IND   000006194650000US
20150417*I  MIMEEE IND   000000360379000US
20150417*I  MIMF   IND   000000822170000US
20150417*I  MIMUATAIND   000000490890000AT
20150417*I  MIMUCHLIND   000001020840000CL
20150417*I  MIMUEMRIND   000001255850000US
20150417*I  MIMUNETIND   000001349950000NL
20150417*I  MIMUPHIIND   000002348952000US
20150417*I  MIMUPOLIND   000000647654000US
20150417*I  MIMUTURIND   000001646880000TK
20150417*I  MIND   IND   000017156730000US
20150417*I  MIPL   IND   000000508820000US
20150417*I  MISX   IND   000001179060000US
20150417*I  MIUS   IND   000001944160000US
20150417*I  MIWD   IND   000000197266000US
20150417*I  MIWOEN IND   000000243651000US
20150417*I  MIWOFN IND   000000104662000US
20150417*I  MIWOIT IND   000000143488000US
20150417*I  MIWONR IND   000004729104000US
20150417*I  MIWOTR IND   000006650339000US
20150417*I  MIWOUS IND   000005278088000US
20150417*I  MIWOV  IND   000007373326000US
20150417*I  MSCICD IND   000003128040000US
20150417*I  MSCICS IND   000002635910000US
20150417*I  MSCIEN IND   000003377180000US
20150417*I  MSCIFN IND   000001201400000US
20150417*I  MSCIHC IND   000003181090000US
20150417*I  MSCIIN IND   000002615430000US
20150417*I  MSCIIT IND   000002516670000US
20150417*I  MSCIMT IND   000002723610000US
20150417*I  MSCINW IND   000002989890000US
20150417*I  MSCITC IND   000001413950000US
20150417*I  MSCIUT IND   000002426140000US
20150417*I  MSDLCA IND   000001968650000CA
20150417*I  MSDLE15IND   000001552052000US
20150417*I  MSDUE15IND   000001685820000*M
20150417*I  MSDUEMUIND   000000217630000*M
20150417*I  MSDUHK IND   000011107000000HK
20150417*I  MSDUJN IND   000002957922000JP
20150417*I  MSDUUK IND   000001417747000GB
20150417*I  MSDUWI IND   000001769010000US
20150417*I  MSEIAFUIND   000001186244960US
20150417*I  MSEURU$IND   000001296567000US
20150417*I  MSMUPEUIND   000001187815000*M
20150417*I  MSPE   IND   000001294530000EC
20150417*I  MUSM   IND   000001584199000US
20150417*I  MUSQU  IND   000001599406000US
20150417*I  MUSRWGTIND   000002013386000US
20150417*I  MUSVWGTIND   000001956045000US
20150417*I  MVEGPTTIND   000000927740000US
20150417*I  MVFLTR IND   000001064870000US
20150417*I  MVGDXJTIND   000000573170000US
20150417*I  MVMORTRIND   000000935710000US
20150417*I  MVOIHTRIND   000001976810000US
20150417*I  MVPLNDTIND   000001206050000US
20150417*I  MVPPHTRIND   000002988920000EO
20150417*I  MVREMXTIND   000000619550000US
20150417*I  MVRTHTRIND   000003135740000EO
20150417*I  MVSCIFTIND   000001697480000US
20150417*I  MVSMHTRIND   000001003560000EO
20150417*I  MVVNMTRIND   000000770480000DE
20150417*I  MWMFT  IND   000006068940000US
20150417*I  MXAPJ  IND   000000514930000US
20150417*I  MXAT   IND   000000113787000AT
20150417*I  MXAU   IND   000001201264000AU
20150417*I  MXAXJ  IND   000000633620000US
20150417*I  MXBR   IND   000001699104000BZ
20150417*I  MXCA   IND   000001968960000CA
20150417*I  MXDE   IND   000000155903000DE
20150417*I  MXEA   IND   000001896060000US
20150417*I  MXEF   IND   000001042675000*M
20150417*I  MXEM   IND   000000123902000*M
20150417*I  MXEU   IND   000000137421000EO
20150417*I  MXFR   IND   000000144731000FR
20150417*I  MXGB   IND   000000445870000GB
20150417*I  MXGBIM IND   000001047393000GB
20150417*I  MXHK   IND   000014206477000HK
20150417*I  MXIT   IND   000000065706000IT
20150417*I  MXJP   IND   000000978292000JP
20150417*I  MXLA   IND   000002614844000US
20150417*I  MXMS   IND   000000516650000US
20150417*I  MXMU   IND   000000323090000US
20150417*I  MXPC   IND   000002549427000US
20150417*I  MXPCJ  IND   000001361666000US
20150417*I  MXSE   IND   000012691960000SE
20150417*I  MXUK   IND   000002055480000GB
20150417*I  MXWD   IND   000000434010000*M
20150417*I  MXWD000IND   000000180380000US
20150417*I  MXWO   IND   000001769010000*M
20150417*I  MZUSB  IND   000002371750000US
20150417*I  MZUSC  IND   000003533390000US
20150417*I  MZUSI  IND   000002461920000US
20150417*I  MZUSIV IND   000002085750000US
20150417*I  MZUSL  IND   000002183500000US
20150417*I  MZUSM  IND   000003480910000US
20150417*I  MZUSP  IND   000002359850000US
20150417*I  MZUSS  IND   000003518900000US
20150417*I  NBI    IND   000003730390000US
20150417*I  NDDLAS IND   000004874350000AU
20150417*I  NDDLCA IND   000005731260000CA
20150417*I  NDDLEMUIND   000000331359000DE
20150417*I  NDDLFR IND   000005571027000FR
20150417*I  NDDLGR IND   000002588493000DE
20150417*I  NDDLHK IND   000060643065000HK
20150417*I  NDDLIT IND   000002011550000IT
20150417*I  NDDLJN IND   000001776960000JP
20150417*I  NDDLUK IND   000009692249000GB
20150417*I  NDDUAS IND   000003381306000AU
20150417*I  NDDUAT IND   000002400881000AT
20150417*I  NDDUCA IND   000005071468000CA
20150417*I  NDDUEMUIND   000000280830000JP
20150417*I  NDDUFR IND   000005082269000FR
20150417*I  NDDUGR IND   000005348521000DE
20150417*I  NDDUHK IND   000055539867000HK
20150417*I  NDDUIT IND   000000886566000IT
20150417*I  NDDUJN IND   000005372734000JP
20150417*I  NDDUKOKIND   000005291616000US
20150417*I  NDDUSW IND   000020933430000SE
20150417*I  NDDUUK IND   000006045016000US
20150417*I  NDDUWI IND   000004729104000US
20150417*I  NDDUWIFIND   000000706433000US
20150417*I  NDELCHFIND   000000373249000CN
20150417*I  NDELSCHIND   000000388657000CL
20150417*I  NDEUCHFIND   000000529012000CN
20150417*I  NDEUSIAIND   000000583110000IN
20150417*I  NDLEBRAIND   000000595263000BR
20150417*I  NDQ    IND   000003677334000US
20150417*I  NDUEACWIND   000000199197000US
20150417*I  NDUEBRAIND   000000522685000US
20150417*I  NDUEBRI*     000000449892000*M
20150417*I  NDUECAPIND   000000429921000US
20150417*I  NDUECAXIND   000000417966000US
20150417*I  NDUEEGFIND   000000439589000US
20150417*I  NDUEEMEIND   000000360380000US
20150417*I  NDX    IND   000004351799000US
20150417*I  NEY    IND   000000323390000JP
20150417*I  NIFTY  IND   000008606000000IN
20150417*I  NKY    IND   000019652880000JP
20150417*I  NMX    IND   000003845530000GB
20150417*I  NTR4GS IND   000002075346700US
20150417*I  NYA    IND   000011058450000US
20150417*I  NYIID  IND   000005587820000US
20150417*I  NZX    IND   000005861482000US
20150417*I  OBX    IND   000000590590000NO
20150417*I  OEX    IND   000000909870000US
20150417*I  OEXA   IND   000000909870000US
20150417*I  OOI    IND   000001571470000US
20150417*I  OSE3020*     000001068730000NO
20150417*I  P40GLB IND   000000295110000US
20150417*I  PLTMLNPIND   000001483000000US
20150417*I  QSI    IND   000011979830000QA
20150417*I  R3TH   IND   000001134480000US
20150417*I  RAY    IND   000001246670000US
20150417*I  RDXUSD IND   000001213130000US
20150417*I  RICISOTIND   000000985109990US
20150417*I  RLGTRI IND   000000921560000US
20150417*I  RLVTRI IND   000001211490000US
20150417*I  RMCGTRIIND   000002230390000US
20150417*I  RMCVTRIIND   000003073740000US
20150417*I  RMV    IND   000001667180000US
20150417*I  RTY    IND   000001126189000US
20150417*I  RU10DT IND   000004844640000US
20150417*I  RU20INTIND   000001251860000US
20150417*I  RUATU  IND   000006089600000US
20150417*I  RUBNU  IND   000001786650000US
20150417*I  RUITR  IND   000006150090000US
20150417*I  RUJTRI IND   000008941250000US
20150417*I  RUOTRI IND   000005305300000US
20150417*I  RUTTU  IND   000005227540000US
20150417*I  RYY    IND   000001129780000US
20150417*I  S5COND IND   000000596960000US
20150417*I  S5CONS IND   000000504150000US
20150417*I  S5ENRS IND   000000597810000US
20150417*I  S5FINL IND   000000325040000US
20150417*I  S5HLTH IND   000000847410000US
20150417*I  S5INDU IND   000000481200000US
20150417*I  S5INFT IND   000000691810000US
20150417*I  S5MATR IND   000000309792300US
20150417*I  S5TELS IND   000000153020000US
20150417*I  S5UTIL IND   000000224160000US
20150417*I  SBDM13LIND   000000392939200EO
20150417*I  SBDM35LIND   000000530672200EO
20150417*I  SBG13EUIND   000000170486800EO
20150417*I  SBG35EUIND   000000201181100EO
20150417*I  SBG70EUIND   000000249569900EO
20150417*I  SBR    IND   000002536880000US
20150417*I  SBUS13LIND   000000481684900US
20150417*I  SBUSL  IND   000000785645300US
20150417*I  SET    IND   000001566850000TH
20150417*I  SGICAMXIND   000000102098600US
20150417*I  SGICIMXIND   000000132669000US
20150417*I  SGIXBU5IND   000001549713000US
20150417*I  SGMDARSIND   000001591350000US
20150417*I  SGX    IND   000001022250000US
20150417*I  SHCOMP IND   000004287295500CN
20150417*I  SHZ    IND   000000084910000US
20150417*I  SLVRLN IND   000001942000000US
20150417*I  SMI    IND   000009245920000CH
20150417*I  SML    IND   000000714570000US
20150417*I  SMLG   IND   000000525780000US
20150417*I  SMLV   IND   000000477140000US
20150417*I  SPBMWDTIND   000000844684500US
20150417*I  SPBMWDUIND   000000326097000US
20150417*I  SPC    IND   000000650030000US
20150417*I  SPDYPETIND   000000841022800US
20150417*I  SPEURO IND   000001649076700EC
20150417*I  SPF    IND   000000325040000US
20150417*I  SPGINTRIND   000000321499500US
20150417*I  SPGSCTRIND   000003192587000US
20150417*I  SPI    IND   000009279640000CH
20150417*I  SPMIB  IND   000023044080000IT
20150417*I  SPMVTR IND   000001737197900US
20150417*I  SPR    IND   000000482454800US
20150417*I  SPSGTR IND   000000736010400US
20150417*I  SPSIHOTIND   000004148842800US
20150417*I  SPSVTR IND   000000970057200US
20150417*I  SPTICDPIND   000001162390000US
20150417*I  SPTMI  IND   000002201150000US
20150417*I  SPTPX  IND   000001336940000JP
20150417*I  SPTR   IND   000003832329600US
20150417*I  SPTR100IND   000001547740000US
20150417*I  SPTSEM IND   000001001800000CA
20150417*I  SPTSX  IND   000015360550000CA
20150417*I  SPTSX60IND   000000894960000CA
20150417*I  SPX    IND   000002081180000US
20150417*I  SPXGTR IND   000002726590100US
20150417*I  SPXT   IND   000003832330000US
20150417*I  SPXTR  IND   000003832329600US
20150417*I  SPXVTR IND   000004133245100US
20150417*I  STEEL  IND   000000890810000US
20150417*I  STOILP *     000003029100000CA
20150417*I  STOXXNRIND   000006860170000EO
20150417*I  SVX    IND   000000925800000US
20150417*I  SX5E   IND   000003674050000EC
20150417*I  SX5L   IND   000002822540000US
20150417*I  SX5P   IND   000003507620000EC
20150417*I  SX7E   IND   000000151820000EC
20150417*I  SX7T   IND   000000307350000EC
20150417*I  SXEE   IND   000000332660000EO
20150417*I  SXEP   IND   000000341300000EC
20150417*I  SXXR   IND   000000764130000EC
20150417*I  SZCOMP IND   000002136270000CN
20150417*I  TLZ    IND   000000131360000US
20150417*I  TOPXC  IND   000000810210000JP
20150417*I  TOPXDV IND   000002191160000JP
20150417*I  TPX    IND   000001588690000JP
20150417*I  TRINXD IND   000000781890000US
20150417*I  TRINXF IND   000000504540000US
20150417*I  TRINXI IND   000000720050000US
20150417*I  TRINXM IND   000000489200000US
20150417*I  TRINXS IND   000000816120000US
20150417*I  TRINXU IND   000000517590000US
20150417*I  TWII   IND   000009570930000TW
20150417*I  UKX    IND   000006994630000GB
20150417*I  USCRWTIIND   000000104950000US
20150417*I  USG2TR IND   000000337642000US
20150417*I  VIX    IND   000000013890000US
20150417*I  WICOL  IND   000003460040000*M
20150417*I  WORLD  IND   000001769010000US
20150417*I  WTDITR IND   000000589160000US
20150417*I  WTDXFTRIND   000000560859000US
20150417*I  WTEI   IND   000000302820000US
20150417*I  WTEPSTRIND   000000317882600US
20150417*I  WTHYE  IND   000000355840000US
20150417*I  WTHYETRIND   000000320230000US
20150417*I  WTIDAPXIND   000000227796800US
20150417*I  WTIDESTIND   000000353195000US
20150417*I  WTIDFATIND   000000440663000US
20150417*I  WTIDJSTIND   000000050570000US
20150417*I  WTIDLCTIND   000000284443400US
20150417*I  WTIDSCTIND   000000333147200US
20150417*I  WTIDXFTIND   000000393021100US
20150417*I  WTLDITRIND   000000386520000US
20150417*I  WTMDITRIND   000000444570000US
20150417*I  WTMEITRIND   000000406903000US
20150417*I  WTSDITRIND   000000393770000US
20150417*I  WTSEITRIND   000000350530000US
20150417*I  XAX    IND   000002517250000US
20150417*I  XINOU  IND   000024452880000CN
20150417*I  XMI    IND   000001862810000US
20150417*I  XNDX   IND   000004776720000US
201504171B  ANGELD 10    000000029340000MX
201504171B  BRTRAC 10    000000022570000MX
201504171B  CHNTRAC11    000000032520000MX
201504171B  CONSTRU10    000000003000000MX
201504171B  CONSUMO10    000000033660000MX
201504171B  DIABLOI10    000000014740000MX
201504171B  ENLACE 10    000000021600000MX
201504171B  FIBRATC14    000000023110000MX
201504171B  ICMTRACISHRS 000000030420000MX
201504171B  IHBTRACISHRS 000000010410000MX
201504171B  ILCTRACISHRS 000000045670000MX
201504171B  IMCTRACISHRS 000000030200000MX
201504171B  IMXTRACISHRS 000000055810000US
201504171B  IVVPESOISHRS 000000029100000MX
201504171B  MEXMTUMISHRS 000000039090000MX
201504171B  MEXRISKISHRS 000000019700000MX
201504171B  MEXTRAC09    000000031350000MX
201504171B  NAFTRACISHRS 000000045030000MX
201504171B  SMARTRC14    000000018800000MX
201504171I  1305JP *     000000213927875JP
201504171I  1306JP *     000000211219928JP
201504171I  1310JP *     000000104062565JP
201504171I  1320JP *     000002606077373JP
201504171I  1398HK HK    000000013412700CN
201504171I  1612JP *     000000027079478JP
201504171I  2800HK *     000000055507641HK
201504171I  2833HK *     000000558236984HK
201504171I  AAXJ   *     000001038973480US
201504171I  ACWI   *     000000940512176US
201504171I  ACWV   *     000001114618712US
201504171I  ACWX   *     000000710667048EU
201504171I  AFK    *     000000401501616US
201504171I  AGG    *     000001709980376US
201504171I  AGZ    *     000001753774984US
201504171I  AIGA   N     000000087818908JE
201504171I  AIGC   N     000000159061710JE
201504171I  AIGE   N     000000089579880JE
201504171I  AIGG   N     000000068471185JE
201504171I  AIGI   N     000000180691040JE
201504171I  ASDR   *     000001055051920US
201504171I  ASHR   *     000000681113344US
201504171I  AUSE   *     000000833935088US
201504171I  AXJL   *     000001068848753US
201504171I  BAB    *     000000467652912US
201504171I  BBH    *     000002021442728US
201504171I  BBVABSMN     000002288717601ES
201504171I  BBVADSMN     000000208404011ES
201504171I  BBVAESMN     000000607975859ES
201504171I  BBVALSMN     000000686889274ES
201504171I  BBVAMSMN     000001821613996ES
201504171I  BIL    *     000000699948088US
201504171I  BIV    *     000001325629096US
201504171I  BJK    *     000000574536256US
201504171I  BKF    *     000000614349536EU
201504171I  BLV    *     000001483810320US
201504171I  BND    *     000001280303208US
201504171I  BNDX   *     000000829341248US
201504171I  BRF    *     000000272567840MX
201504171I  BSV    *     000001233599168US
201504171I  BWX    *     000000822450488US
201504171I  BZF    *     000000233979584US
201504171I  BZQ    *     000001259477800US
201504171I  CACFP  *     000000845613609FR
201504171I  CEW    *     000000283593056US
201504171I  CHIQ   *     000000226476312US
201504171I  CIU    *     000001699414544US
201504171I  CLY    *     000000962792300US
201504171I  CMDT   *     000000622226440US
201504171I  COPA   N     000000429141220JE
201504171I  CORP   *     000001608762768US
201504171I  CRED   *     000001736165264US
201504171I  CRUD   N     000000216369864JE
201504171I  CSJ    *     000001618103576US
201504171I  CYB    *     000000391242040US
201504171I  DBA    *     000000340709800US
201504171I  DBB    *     000000239951576US
201504171I  DBC    *     000000274711632MX
201504171I  DBE    *     000000265370824US
201504171I  DBEF   *     000000467040400US
201504171I  DBEM   *     000000340097288US
201504171I  DBEU   *     000000453258880US
201504171I  DBGR   *     000000429983424US
201504171I  DBJP   *     000000642831344US
201504171I  DBO    *     000000225557544US
201504171I  DBP    *     000000570432426US
201504171I  DBV    *     000000386724764US
201504171I  DDM    *     000002062940416US
201504171I  DEM    *     000000645587648US
201504171I  DES    *     000001093640176US
201504171I  DFE    *     000000879414104US
201504171I  DFJ    *     000000852463576US
201504171I  DGRO   *     000000402879768US
201504171I  DGRW   *     000000480668792US
201504171I  DGS    *     000000713270224US
201504171I  DGT    *     000001092903630US
201504171I  DHS    *     000000944493504US
201504171I  DIA    *     000002724759632MX
201504171I  DIG    *     000000867316992US
201504171I  DJMCLN *     000000862484272IE
201504171I  DLN    *     000001133453456US
201504171I  DLS    *     000000940052792US
201504171I  DOG    *     000000351811580US
201504171I  DOL    *     000000766865024US
201504171I  DON    *     000001311235064US
201504171I  DOO    *     000000689841640US
201504171I  DTD    *     000001145091184US
201504171I  DTN    *     000001174798016US
201504171I  DUG    *     000000724448568US
201504171I  DVY    *     000001200370392US
201504171I  DVYE   *     000000670241256US
201504171I  DWM    *     000000817091008US
201504171I  DXD    *     000000323253208US
201504171I  DXGE   *     000000472093624US
201504171I  DXJ    *     000000859966848US
201504171I  DZZ    *     000000108414624US
201504171I  E40    N     000000842473750FR
201504171I  EBRI   N     000000959805324FR
201504171I  ECH    *     000000646965800US
201504171I  ECNS   *     000000879959240US
201504171I  EDC    *     000000434577264US
201504171I  EDEN   *     000000821684848US
201504171I  EDV    *     000001998320400US
201504171I  EDZ    *     000000416508160US
201504171I  EEB    N     000000906427721FR
201504171I  EEM    *     000000653856560US
201504171I  EEMV   *     000000946024784US
201504171I  EES    *     000001308631888US
201504171I  EFA    *     000001010185416US
201504171I  EFAV   *     000001038207840US
201504171I  EFG    *     000001100837192US
201504171I  EFNL   *     000000532426056US
201504171I  EFV    *     000000837457032US
201504171I  EGPT   *     000000821225464US
201504171I  EIA    N     000000855859465FR
201504171I  EIDO   *     000000422327024US
201504171I  EIRL   *     000000595821048US
201504171I  EIS    *     000000804075128US
201504171I  ELD    *     000000625068496US
201504171I  EMB    *     000001736012136US
201504171I  EMDR   US    000000765640000US
201504171I  EMHY   *     000000747570896US
201504171I  EMIF   *     000000541154352US
201504171I  EMLC   *     000000313299888US
201504171I  ENOR   *     000000381901232US
201504171I  ENZL   *     000000632418640US
201504171I  EPHE   *     000000641606320US
201504171I  EPI    *     000000352806912US
201504171I  EPOL   *     000000379451184US
201504171I  EPP    *     000000718629704US
201504171I  EPS    *     000001102942702US
201504171I  EPU    *     000000454177648US
201504171I  EREEUR N     000001982903595FR
201504171I  ERR    N     000000467177970FR
201504171I  ERUS   *     000000228620104US
201504171I  ESEEUR N     000001630082596FR
201504171I  ESR    *     000000293086992US
201504171I  ETD    N     000000859990858US
201504171I  ETX    N     000000824130363MX
201504171I  EUE    N     000000614734806IE
201504171I  EUFN   *     000000354338192US
201504171I  EUN2   GR    000000621311997IE
201504171I  EUO    *     000000406707968US
201504171I  EUSA   *     000000684022776US
201504171I  EWA    *     000000356481984US
201504171I  EWC    *     000000444224328US
201504171I  EWD    *     000000513591312US
201504171I  EWG    *     000000450043192US
201504171I  EWH    *     000000357247624US
201504171I  EWI    *     000000227395080US
201504171I  EWJ    *     000000197994504US
201504171I  EWK    *     000000263533288US
201504171I  EWL    *     000000529976008US
201504171I  EWM    *     000000209632232US
201504171I  EWN    *     000000392926448US
201504171I  EWO    *     000000250211152US
201504171I  EWP    *     000000530129136US
201504171I  EWQ    *     000000408392376US
201504171I  EWS    *     000000205957160US
201504171I  EWT    *     000000241482856US
201504171I  EWU    *     000000288493152US
201504171I  EWW    *     000000912642880US
201504171I  EWY    *     000000934387056US
201504171I  EWZ    *     000000528827548US
201504171I  EWZS   *     000000184519240US
201504171I  EXHA   N     000002402157402DE
201504171I  EXHB   N     000001525062574DE
201504171I  EXHC   N     000001837561174DE
201504171I  EXI    *     000001115843736US
201504171I  EXS1   N     000001717668137MX
201504171I  EXSA   N     000000672012457DE
201504171I  EXT    *     000001138812936US
201504171I  EXXY   N     000000397935816DE
201504171I  EZA    *     000001071130360US
201504171I  EZM    *     000001474316384US
201504171I  EZU    *     000000594902280US
201504171I  FAB    *     000000741920473US
201504171I  FAS    *     000001860045816US
201504171I  FAZ    *     000000190031848US
201504171I  FBT    *     000001842436096US
201504171I  FCAN   *     000000488937704US
201504171I  FCG    *     000000184212984US
201504171I  FCHI   *     000000964706400US
201504171I  FDD    *     000000205957160US
201504171I  FDL    *     000000365210280US
201504171I  FDM    *     000000519946124US
201504171I  FDN    *     000001005897832US
201504171I  FDT    *     000000792590528US
201504171I  FEM    *     000000371947912US
201504171I  FEMS   *     000000546207576US
201504171I  FEP    *     000000482046944US
201504171I  FEU    *     000000554017104US
201504171I  FEX    *     000000717404680US
201504171I  FEZ    *     000000594902280US
201504171I  FFR    *     000000689994768US
201504171I  FGD    *     000000398898440US
201504171I  FGM    *     000000589830681US
201504171I  FLOT   *     000000776052704US
201504171I  FLTR   *     000000380982464US
201504171I  FM     *     000000474696800US
201504171I  FNI    *     000000486028272US
201504171I  FNX    *     000000839294568US
201504171I  FPX    *     000000826125560US
201504171I  FRAK   *     000000368885352US
201504171I  FSEU50S*     000000605662278LU
201504171I  FTA    *     000000683102477US
201504171I  FTC    *     000000737464448US
201504171I  FTY    *     000000724601696US
201504171I  FV     *     000000369191608US
201504171I  FVD    *     000000370722888US
201504171I  FXA    *     000001192254608US
201504171I  FXB    *     000002248684680US
201504171I  FXC    *     000001245390024US
201504171I  FXD    *     000000563511040US
201504171I  FXE    *     000001628669408US
201504171I  FXF    *     000001567724464US
201504171I  FXG    *     000000680194576US
201504171I  FXH    *     000001032695232US
201504171I  FXI    *     000000766099384US
201504171I  FXL    *     000000548198240US
201504171I  FXM    *     000001198226600US
201504171I  FXN    *     000000348825584US
201504171I  FXO    *     000000361075824US
201504171I  FXR    *     000000475309312US
201504171I  FXRU   *     000000521553968US
201504171I  FXS    *     000001732643320US
201504171I  FXU    *     000000362607104US
201504171I  FXY    *     000001252740168US
201504171I  FXZ    *     000000491387752US
201504171I  FYX    *     000000776512088US
201504171I  GBF    *     000001777203568US
201504171I  GDX    *     000000301968416US
201504171I  GDXJ   *     000000377001136US
201504171I  GEX    *     000000934821940US
201504171I  GLD    *     000001770159680US
201504171I  GLL    *     000001454561341US
201504171I  GLTR   *     000000944600694US
201504171I  GMF    *     000001424090400US
201504171I  GML    *     000000777888709US
201504171I  GMM    *     000001043414192US
201504171I  GSG    *     000000322028184US
201504171I  GVI    *     000001715952368US
201504171I  GWL    *     000000446061864US
201504171I  GWX    *     000000463365328US
201504171I  GXC    *     000001447672112US
201504171I  GXG    *     000000177322224MX
201504171I  HAO    *     000000424011432US
201504171I  HAP    *     000000532732312US
201504171I  HDV    *     000001180004368US
201504171I  HEDJ   *     000001013860488US
201504171I  HEWG   *     000000427686504US
201504171I  HEWJ   *     000000464437224US
201504171I  HEZU   *     000000449277552US
201504171I  HYD    *     000000479903152US
201504171I  HYEM   *     000000367507200US
201504171I  HYG    *     000001393924184US
201504171I  HYS    *     000001561752472US
201504171I  IACC   LN    000000749561560GB
201504171I  IAI    *     000000649415848US
201504171I  IAK    *     000000759821136US
201504171I  IAT    *     000000529516624US
201504171I  IAU    *     000000178240992US
201504171I  IBB    *     000005458400688US
201504171I  IBCI   N     000003458871189IE
201504171I  IBCX   N     000002248882705IE
201504171I  IBGL   N     000004098117501IE
201504171I  IBGM   N     000003442033847IE
201504171I  IBGS   N     000002374179814IE
201504171I  IBGX   N     000002758575194IE
201504171I  IBTM   N     000003102538046IE
201504171I  IBTS   N     000002037547506IE
201504171I  ICF    *     000001504941984US
201504171I  ICLN   *     000000193094408US
201504171I  ICOL   *     000000253293619US
201504171I  ICOLCAP*     000000085044568CO
201504171I  IDRC   LN    000000369804120IE
201504171I  IDU    *     000001698955160US
201504171I  IDV    *     000000528750984US
201504171I  IDX    *     000000378838672US
201504171I  IEF    *     000001668788944US
201504171I  IEFA   *     000000920299280US
201504171I  IEI    *     000001906749856US
201504171I  IEMG   *     000000786465408US
201504171I  IEO    *     000001197460960US
201504171I  IETF   *     000000208222229IE
201504171I  IEV    *     000000695354248US
201504171I  IEZ    *     000000796418728US
201504171I  IFAS   *     000000499503536US
201504171I  IFEU   *     000000599496120US
201504171I  IFGL   *     000000487406424US
201504171I  IFNA   *     000000892123728US
201504171I  IGF    *     000000657991016US
201504171I  IGLS   N     000003033241501GB
201504171I  IGOV   *     000001415055848US
201504171I  IHE    *     000002716643848US
201504171I  IHF    *     000002037674296US
201504171I  IHI    *     000001839986048US
201504171I  IJH    *     000002315601616US
201504171I  IJJ    *     000002006589312US
201504171I  IJK    *     000002600725952US
201504171I  IJPN   *     000000198898265IE
201504171I  IJR    *     000001794660160US
201504171I  IJS    *     000001811197984US
201504171I  IJT    *     000001976116840US
201504171I  ILF    *     000000481434432US
201504171I  INDA   *     000000493531544US
201504171I  INDIA  SP    000000121430504SG
201504171I  INDY   *     000000481893816US
201504171I  INPA   US    000001148919384US
201504171I  IOO    *     000001196235936US
201504171I  IPE    *     000000882017280US
201504171I  ISHG   *     000001209711200US
201504171I  ITA    *     000001875205488US
201504171I  ITB    *     000000422020768US
201504171I  ITE    *     000000929214392US
201504171I  ITF    *     000000850472912US
201504171I  ITM    *     000000364291512US
201504171I  ITOT   *     000001458544200US
201504171I  ITPS   N     000003064510851IE
201504171I  IUSA   N     000000318477758IE
201504171I  IVE    *     000001433278080US
201504171I  IVOG   *     000001601106368US
201504171I  IVOO   *     000001562518112US
201504171I  IVOV   *     000001518110992US
201504171I  IVV    *     000003205887808US
201504171I  IVW    *     000001749946784US
201504171I  IWB    *     000001786084992US
201504171I  IWC    *     000001224717744US
201504171I  IWD    *     000001592531200US
201504171I  IWF    *     000001520561040US
201504171I  IWM    *     000001905371704US
201504171I  IWN    *     000001572777688US
201504171I  IWO    *     000002332292568US
201504171I  IWP    *     000001508617056US
201504171I  IWRD   N     000000576593071IE
201504171I  IWS    *     000001149991280US
201504171I  IWV    *     000001908281136US
201504171I  IWW    *     000002079325112US
201504171I  IWZ    *     000001246002536US
201504171I  IXC    *     000000589236544US
201504171I  IXG    *     000000888986135US
201504171I  IXJ    *     000001672310888US
201504171I  IXN    *     000001480747760US
201504171I  IXP    *     000000961643840US
201504171I  IXUS   *     000000878954720US
201504171I  IYC    *     000002186055328US
201504171I  IYE    *     000000706073208US
201504171I  IYF    *     000001359623512US
201504171I  IYG    *     000001377845744US
201504171I  IYH    *     000002383131064US
201504171I  IYJ    *     000001652404248US
201504171I  IYK    *     000001633569504US
201504171I  IYM    *     000001279537568US
201504171I  IYR    *     000001186588872US
201504171I  IYT    *     000002370421440US
201504171I  IYW    *     000001605700208US
201504171I  IYY    *     000001613815992US
201504171I  IYZ    *     000000471327984US
201504171I  JNK    *     000000603477448US
201504171I  JSC    *     000000820842644US
201504171I  JXI    *     000000718782832US
201504171I  KBE    *     000000515581976US
201504171I  KCE    *     000000765793128US
201504171I  KIE    *     000001035757792US
201504171I  KOL    *     000000211776024US
201504171I  KRE    *     000000627824800US
201504171I  KXI    *     000001435268744US
201504171I  LEMB   *     000000692138560US
201504171I  LQD    *     000001871530416US
201504171I  LTPZ   *     000001082614960US
201504171I  LYAEJSWN     000000828269352FR
201504171I  LYLTMSWN     000000431055320FR
201504171I  LYUSASWN     000002835777432FR
201504171I  LYWLDSWN     000002731344136FR
201504171I  MBB    *     000001691758144US
201504171I  MCHI   *     000000937449616US
201504171I  MDIV   *     000000325090744US
201504171I  MDYG   *     000001922981424US
201504171I  MES    *     000000434271008US
201504171I  MGC    *     000001085524392EU
201504171I  MGK    *     000001280609464EU
201504171I  MGV    *     000000924586864US
201504171I  MLN    *     000000304104552US
201504171I  MOAT   *     000000481587560US
201504171I  MOO    *     000000835313240US
201504171I  MORT   *     000000368937416US
201504171I  MSEFP  *     000000606571185FR
201504171I  MTUM   *     000001073121024US
201504171I  MVEU   N     000000647722252IE
201504171I  MXI    *     000000887683016US
201504171I  NLR    *     000000757830472US
201504171I  NUCL   *     000000553557720US
201504171I  OEF    *     000001394842952US
201504171I  OIH    *     000000572086208US
201504171I  OILB   N     000000575301896JE
201504171I  PALL   *     000001165763464US
201504171I  PBD    *     000000201671107US
201504171I  PBE    *     000000879414104US
201504171I  PBJ    *     000000490775240US
201504171I  PBP    *     000000324784488US
201504171I  PBW    *     000000089579880US
201504171I  PCEF   *     000000366741560US
201504171I  PCY    *     000000439017976US
201504171I  PDP    *     000000661512960US
201504171I  PEK    *     000000860119976US
201504171I  PEY    *     000000205848439US
201504171I  PFF    *     000000611286976US
201504171I  PFM    *     000000325856384US
201504171I  PGF    *     000000283746184US
201504171I  PGJ    *     000000492765904US
201504171I  PGX    *     000000227241952US
201504171I  PHB    *     000000292015096US
201504171I  PHO    *     000000383279384US
201504171I  PID    *     000000278846088US
201504171I  PIE    *     000000290330688US
201504171I  PIN    *     000000349131840MX
201504171I  PIO    *     000000370569760US
201504171I  PIZ    *     000000387107584US
201504171I  PLND   *     000000287712199US
201504171I  PLW    *     000000516960128US
201504171I  PPA    *     000000553863976US
201504171I  PPH    *     000001095171456US
201504171I  PPLT   *     000001739379421US
201504171I  PRF    *     000001411993288US
201504171I  PRFZ   *     000001605240824US
201504171I  PSIFX  *     000000683257136US
201504171I  PSP    *     000000179925400US
201504171I  PSQ    *     000000877423440US
201504171I  PVI    *     000000381901232US
201504171I  PWB    *     000000465815376US
201504171I  PWC    *     000001147388104US
201504171I  PWV    *     000000474696800US
201504171I  PXF    *     000000650487744US
201504171I  PXH    *     000000309931072US
201504171I  PXJ    *     000000275324144US
201504171I  PXMG   *     000000494603440US
201504171I  PXR    *     000000613735493US
201504171I  PZA    *     000000389557632US
201504171I  PZD    *     000000467951512US
201504171I  PZI    *     000000249447043US
201504171I  QLD    *     000002197846184US
201504171I  QLTA   *     000000808362712US
201504171I  QLTC   *     000000768305958US
201504171I  QQEW   *     000000675141352US
201504171I  QQQ    *     000001623309928MX
201504171I  QTEC   *     000000668709976US
201504171I  QUAL   *     000000971444032US
201504171I  REM    *     000000181303552US
201504171I  REMX   *     000000410534637US
201504171I  REW    *     000000815100344US
201504171I  REZ    *     000000922289944US
201504171I  RPG    *     000001274790600US
201504171I  RPV    *     000000826125560US
201504171I  RSCO   *     000001338507161US
201504171I  RSP    *     000001249065096US
201504171I  RSX    *     000000295690168US
201504171I  RSXJ   *     000000368885352US
201504171I  RTH    *     000001156728912US
201504171I  RUDR   US    000000750327200US
201504171I  RXI    *     000001392699160US
201504171I  SCC    *     000000180470536US
201504171I  SCIF   *     000000736851936US
201504171I  SCJ    *     000000898095720US
201504171I  SCO    US    000000922902456US
201504171I  SCZ    *     000000782790336US
201504171I  SDOW   UP    000000298446472US
201504171I  SDY    *     000001193632760US
201504171I  SFYAU  *     000000687224070AU
201504171I  SGOL   *     000001804460352US
201504171I  SHV    *     000001688695584US
201504171I  SHY    *     000001300362976US
201504171I  SIJ    *     000000617366158US
201504171I  SIL    *     000000133527616US
201504171I  SIVR   *     000000245004800US
201504171I  SIZE   *     000001018148072US
201504171I  SKF    *     000000769161944MX
201504171I  SKYY   *     000000454637032US
201504171I  SLV    *     000000238267168US
201504171I  SLX    *     000000493225288US
201504171I  SLXX   *     000003199438669IE
201504171I  SLY    *     000001650719840US
201504171I  SLYG   *     000002865024880US
201504171I  SLYV   *     000001632344480US
201504171I  SMB    *     000000267974000US
201504171I  SMH    *     000000848175992US
201504171I  SMN    *     000000427380248US
201504171I  SPHQ   *     000000358013264US
201504171I  SPXU   *     000000538398048US
201504171I  SPY    *     000003184756144US
201504171I  SPYG   *     000001514895304US
201504171I  SPYV   *     000001553483560US
201504171I  SQQQ   *     000000403339152US
201504171I  SRS    *     000000183447344US
201504171I  SSO    *     000002007048696US
201504171I  STPZ   *     000000802390720US
201504171I  SX5EEXG*     000000611611485DE
201504171I  SX7EEX N     000000254989603DE
201504171I  SX8EEX N     000000499815978DE
201504171I  SXDEEX N     000001098454888DE
201504171I  SXEPEXG*     000000562034764DE
201504171I  SXKEEX N     000000646480445DE
201504171I  TAN    *     000000735014400US
201504171I  TDIV   *     000000418651952US
201504171I  THD    *     000001288418992US
201504171I  THRK   *     000002395534432US
201504171I  TIP    *     000001768475272US
201504171I  TIPZ   *     000000903354136US
201504171I  TLH    *     000002134451192US
201504171I  TLT    *     000002012867560US
201504171I  TOK    *     000000857976184US
201504171I  TQQQ   *     000001589315512US
201504171I  TUR    *     000000708063872US
201504171I  TUZ    *     000000782024696US
201504171I  TWM    *     000000543604400US
201504171I  UDN    *     000000332900272US
201504171I  UGA    *     000000583570808US
201504171I  UGL    *     000000603477448US
201504171I  ULE    *     000000240412491US
201504171I  UNG    *     000000202741472US
201504171I  UPRO   *     000002084684592US
201504171I  URE    *     000001656844960US
201504171I  URTH   *     000001136056632US
201504171I  USCI   *     000000707757616US
201504171I  USL    *     000000412373704US
201504171I  USMV   *     000000629509208US
201504171I  USO    *     000000303805952US
201504171I  UUP    *     000000392467064US
201504171I  UWM    *     000001492538616US
201504171I  UYG    *     000002213465240US
201504171I  UYM    *     000000781259056US
201504171I  VAW    *     000001685173640US
201504171I  VB     *     000001869999136US
201504171I  VBK    *     000002051915200US
201504171I  VBR    *     000001671392120US
201504171I  VCR    *     000001868774112US
201504171I  VCSH   *     000001231149120US
201504171I  VDC    *     000001953453896US
201504171I  VDE    *     000001772150344US
201504171I  VEA    *     000000627977928US
201504171I  VEU    *     000000774521424US
201504171I  VFH    *     000000753696016US
201504171I  VGK    *     000000852004192US
201504171I  VGSH   *     000000936835573US
201504171I  VGT    *     000001624381824US
201504171I  VHT    *     000002093106632US
201504171I  VIG    *     000001227933432US
201504171I  VIOG   *     000001705386536US
201504171I  VIOO   *     000001622238032US
201504171I  VIOV   *     000001563590008US
201504171I  VIS    *     000001644135336US
201504171I  VLUE   *     000001014932384US
201504171I  VNM    *     000000278999216US
201504171I  VNQ    *     000001252587040US
201504171I  VNQI   *     000000896258184US
201504171I  VO     *     000001979791912US
201504171I  VOE    *     000001413830824US
201504171I  VONE   *     000001475541408US
201504171I  VONG   *     000001559761808US
201504171I  VONV   *     000001393005416US
201504171I  VOO    *     000002918466552US
201504171I  VOOG   *     000001567111952US
201504171I  VOOV   *     000001380448920US
201504171I  VOT    *     000001648729176US
201504171I  VOX    *     000001344463840US
201504171I  VPL    *     000000971903416US
201504171I  VPU    *     000001472631976US
201504171I  VSS    *     000001585640440US
201504171I  VT     *     000000962868864US
201504171I  VTHR   *     000001475388280US
201504171I  VTI    *     000001655007424US
201504171I  VTIP   *     000000747724024US
201504171I  VTV    *     000001291175296US
201504171I  VTWG   *     000001696964496US
201504171I  VTWO   *     000001526073648US
201504171I  VTWV   *     000001366820528US
201504171I  VUG    *     000001653323016US
201504171I  VV     *     000001467119368US
201504171I  VWO    *     000000666413056US
201504171I  VWOB   *     000001203586080US
201504171I  VXF    *     000001417659024US
201504171I  VXUS   *     000000801012568US
201504171I  VYM    *     000001054439408US
201504171I  WIP    *     000000857976184US
201504171I  WITE   *     000000510314373US
201504171I  WOOD   *     000000840262337US
201504171I  XBI    *     000003533887984US
201504171I  XES    *     000000437792952US
201504171I  XHB    *     000000545288808US
201504171I  XIU    *     000000281926551MX
201504171I  XLB    *     000000759821136US
201504171I  XLE    *     000001254271448US
201504171I  XLF    *     000000369497864US
201504171I  XLI    *     000000854454240US
201504171I  XLK    *     000000635021816US
201504171I  XLP    *     000000751245968US
201504171I  XLU    *     000000675294480US
201504171I  XLV    *     000001122275112US
201504171I  XLY    *     000001151981944US
201504171I  XME    *     000000417120672US
201504171I  XOP    *     000000830719400US
201504171I  XPH    *     000001981170064US
201504171I  XRT    *     000001512598384US
201504171I  XSB    N     000000360690954CA
201504171I  XSD    *     000001344616968US
201504171I  YAO    *     000000495828464US
201504171I  ZROZ   *     000001943806832US
201504171I  ZSL    *     000001598503192US
20150417RC  BMBRARTIND   000000327130000MX
20150417RC  BMBRATMIND   000000220540000MX
20150417RC  BMVCFRTIND   000000337780000MX
20150417RC  BMVCRT IND   000000036440000MX
20150417RC  BMVERT IND   000000219900000MX
20150417RC  CHNSX20IND   000000324670000MX
20150417RC  DDBOL  IND   000005086030000MX
20150417RC  DIBOL  IND   000001165470000MX
20150417RC  DJMX20 MX    000001095220000MX
20150417RC  HABIRT IND   000000058570000MX
20150417RC  IMC30  IND   000000720120000MX
20150417RC  INM    IND   000002641650000MX
20150417RC  INMEXRTIND   000003004560000MX
20150417RC  IPCCOMPIND   000000366660000MX
20150417RC  IPCLARGIND   000000397110000MX
20150417RC  IPCMID IND   000000239030000MX
20150417RC  IPCSMALIND   000000355800000MX
20150417RC  IRT    IND   000056625870000MX
20150417RC  IRTCOMPIND   000000436380000MX
20150417RC  IRTLARGIND   000000473650000MX
20150417RC  IRTMID IND   000000286130000MX
20150417RC  IRTSMALIND   000000416400000MX
20150417RC  MEXBOL IND   000045012370000MX
20150417RC  RENTABLIND   000000225450000MX